:100000000C9466060C948E060C948E060C948E0648
:100010000C948E060C948E060C948E060C948E0610
:100020000C948E060C948E060C94102C0C94AD2A15
:100030000C948E060C948E060C948E060C948E06F0
:100040000C948E060C948E060C948E060C948E06E0
:100050000C948E060C948E060C948E060C9414262A
:100060000C948E060C948E060C948E060C948E06C0
:100070000C948E060C948E060C948E060C948E06B0
:100080000C9430080C948E060C948E060C948E06FC
:100090000C948E060C948E060C948E060C948E0690
:1000A0000C948E060C948E060C948E0648274D27D1
:1000B00052275C276627B027B027B02770277A27FA
:1000C00084278E279B27B027A327D127D427C32790
:1000D000C727CD27F527F527F527D827DC27E027E1
:1000E000E627EA27F527F02705A84CCDB2D44EB96C
:1000F0003836A9020C50B9918688083CA6AAAA2ACB
:10010000BE000000803F56312E32004C4556454C13
:100110003A200048415244004E4F524D414C004558
:10012000415359004D4F4445203A00534156452014
:100130003A204F46460053415645203A204F4E0044
:10014000534F554E443A204F464600534F554E4468
:100150003A204F4E0000F8F8F8F8F8F8F8F0C00030
:10016000C0C0C0C0C0C0C0C080000000C0C0C0C00F
:10017000C0C0800000C0C0C0C0C0C080000080C03F
:10018000C0C0C0C0C0C0800000000000000000006F
:10019000000000F0F8F8F8F8F8F8F8F8F00000C0FF
:1001A000C0C0000000C0C0C0000080C0C0C0C0C04F
:1001B000C08000C0C0C080C0C0C00000C0FFFCF84C
:1001C00000000000FFFFFFC0C0C0C0C00000020E62
:1001D0003EFEFCF0C0800000F7F7F7070707FFFFBF
:1001E000FF00C0E7F7E78707E7F7F700E7F7F7074C
:1001F000070707070600FFFFFF0777F7F7F7E70096
:100200000000000000000000000000FEFEFE0000F4
:100210000000FEFEFE0000FFFFFF000000FFFFFFEA
:1002200000E4F7F7E70707F7F7E700FFFFFF070727
:100230000707070407FFFFFF00070400F7F7E707BA
:10024000070FFFFFFF0878F8F8F8FBFFFFFFFE003D
:10025000FFFFFFF8F8F8FFFFFF007FFFFFFBFBF851
:10026000FFFFFF007FFFFFF8F8F8F8F81800FFFF26
:10027000FFF8F8FBFBFB1900000000000000000085
:100280000000007FFFFFF8F8F8F8FFFFFF0000FF15
:10029000FFFFF8F8F8FFFFFF00FFFFFFFBFBF8FF91
:1002A000FFFF00FFFFFF00000000000000FFFFFF56
:1002B00000000000FFFFFF000000FFFFFF00000044
:1002C00000000000000000007F7F7F0000000000B1
:1002D000000000000000000000000000000000001E
:1002E000000000000000000000000000000000000E
:1002F00000000000000000000000000000000000FE
:1003000000010707070400000000000000000000D3
:1003100000000000000000000000000000000000DD
:1003200000000000000000000000000000000000CD
:1003300000000000000000000000000000000000BD
:1003400000000000000000000000000000000000AD
:10035000000000000000000000000000000000009D
:10036000000000000000000000000000000000008D
:10037000000000000000000000000000000000007D
:100380000000000000000000000000000000004C21
:100390004556454C0047414C415859210054484569
:1003A00000594F55205341564544004C4556454C45
:1003B000004E45585400434F4E475241545321007C
:1003C00050415553454400E080800000E02020006B
:1003D00000F090900000C080808080C0404040408D
:1003E000F880000000F808000000F820000000F08D
:1003F00000000000E040400000000000000000009D
:100400000000000080C06020B65F7F5EBC58B85816
:10041000B070E0C08000000000000000000000009C
:10042000000000000000007EF3B030EACA0ACA3AB9
:10043000B0B0B0B0210CFAFCFF7E800000000000DC
:1004400000000000000000000000103E73C1F3FF38
:10045000D050505B599101A000B05F3F1F0C0300CA
:10046000000000000030507060E0C8C8C888988C58
:100470008C1D9FFFAB5DFB899CA8F68E46B11AF2DE
:10048000E044C40488088820100000F8FFF78522A3
:100490000513CEFD020506060E33841122228404C4
:1004A000838020D81F030205FEF7A08618000007EE
:1004B0000701050303020707030400000000010011
:1004C0000000000101000601000000000707040011
:1004D00000000000000000000000000000F03020DC
:1004E0002020E0E0E0E0C0C0E0E0E0A0A02020208C
:1004F00040404080800000000000000000002030EC
:1005000078FC1F068301000000011F0F0707070783
:100510000F0F1F7EFEFCF080000909F2BC302000A6
:1005200000000000003F7CFE1FFC50DC6647476770
:10053000D7D7575E1EFCFCFCDF1FFFFFE0F8FCFF77
:10054000FF7F7CF0E040000000000040E0FFE0C1E1
:1005500081A0A0A08181C1C0E0F0FEFEFCFEFFFFF3
:10056000FFFFFF0F0F0F0C00000000000000000055
:100570008070DCFEFFFFFFBF3F0F070FFFFFFF3B59
:100580001B0B070FDFF30303000000000000000057
:100590000000000003000303030301000000000348
:1005A0000303000000000000000300000000000042
:1005B000000000000000000080C0E0F0F8FCFCFC3F
:1005C000FCFCFCFCFCF8F8E0C000000000000000AF
:1005D000000000000000000000000080C3C1613086
:1005E0003838F8F8F0E0E0C0E13918FFFFF4000017
:1005F000000000000000000000000000000038398A
:10060000110203079F0E3EFD7F7F7F7F3F7F3D3FAF
:100610001F3E7C10000000000000000000000000F1
:10062000000001800000000000C1C1E0E0F0F0F037
:10063000F8F8F8FAF77F1E0C0CF8F0F8F0F0E0C0CC
:10064000000000000000706E7A7E7F7F7F7F7F7FDA
:100650007F7F7F7F7F7F7F7F0100000000011F7F02
:100660007F3F3F3F3F780000000000000000000097
:10067000000000000000000000000000000000007A
:10068000000000000007070705000507050702072F
:10069000022E202D2D2D202020202D2D2D2D2D2DF5
:1006A0002D2D2D2D004849474853434F52450030CA
:1006B0004C42E1910F0F91E3447C300006050502A6
:1006C00005050305050600000000010204081020CE
:1006D000408000000000003E5B4F5B3E3E6B4F6B76
:1006E0003E1C3E7C3E1C183C7E3C181C577D571C13
:1006F0001C5E7F5E1C00183C1800FFE7C3E7FF008C
:1007000018241800FFE7DBE7FF30483A060E2629D9
:10071000792926407F050507407F05253F5A3CE79C
:100720003C5A7F3E1C1C08081C1C3E7F14227F2262
:10073000145F5F005F5F06097F017F006689956A2D
:10074000606060606094A2FFA29408047E040810B8
:10075000207E201008082A1C08081C2A08081E10E1
:100760001010100C1E0C1E0C30383E3830060E3E99
:100770000E06000000000000005F000000070007F8
:1007800000147F147F14242A7F2A12231308646222
:1007900036495620500008070300001C2241000083
:1007A00041221C002A1C7F1C2A08083E08080080E1
:1007B0007030000808080808000060600020100879
:1007C00004023E5149453E00427F4000724949497A
:1007D000462141494D331814127F102745454539AC
:1007E0003C4A4949314121110907364949493646B0
:1007F0004949291E00001400000040340000000890
:100800001422411414141414004122140802015932
:1008100009063E415D594E7C1211127C7F494949BF
:10082000363E414141227F4141413E7F4949494154
:100830007F090909013E414151737F0808087F0083
:10084000417F41002040413F017F081422417F4009
:100850004040407F021C027F7F0408107F3E4141E0
:10086000413E7F090909063E4151215E7F09192950
:1008700046264949493203017F01033F4040403F3A
:100880001F2040201F3F4038403F6314081463037B
:10089000047804036159494D43007F4141410204FA
:1008A000081020004141417F040201020440404001
:1008B0004040000307080020545478407F284444F7
:1008C000383844444428384444287F385454541811
:1008D00000087E090218A4A49C787F08040478000C
:1008E000447D40002040403D007F102844000041EE
:1008F0007F40007C047804787C0804047838444401
:100900004438FC1824241818242418FC7C080404F7
:1009100008485454542404043F44243C4040207C60
:100920001C2040201C3C4030403C44281028444CB3
:100930009090907C4464544C440008364100000080
:10094000770000004136080002010204023C262321
:10095000263C1EA1A161123A4040207A38545455D9
:1009600059215555794121545478412155547840A5
:1009700020545579400C1E5272123955555559392B
:100980005454545939555454580000457C41000280
:10099000457D420001457C40F0292429F0F02825BE
:1009A00028F07C545545002054547C547C0A097F1F
:1009B0004932494949323248484832324A48483037
:1009C0003A4141217A3A42402078009DA0A07D39E9
:1009D000444444393D4040403D3C24FF2424487E6B
:1009E0004943662B2FFC2F2BFF0929F620C0887E58
:1009F000090320545479410000447D413048484A5D
:100A000032384040227A007A0A0A727D0D19317D0F
:100A10002629292F28262929292630484D402038E3
:100A20000808080808080808382F10C8ACBA2F10A2
:100A30002834FA00007B000008142A142222142A09
:100A400014089500220095AA005500AAAA55AA5597
:100A5000AA000000FF00101010FF00141414FF0083
:100A60001010FF00FF1010F010F0141414FC00140C
:100A700014F700FF0000FF00FF1414F404FC14142A
:100A800017101F10101F101F1414141F0010101027
:100A9000F0000000001F101010101F10101010F0B8
:100AA00010000000FF101010101010101010FF1098
:100AB000000000FF140000FF00FF00001F101700DF
:100AC00000FC04F414141710171414F404F40000B8
:100AD000FF00F714141414141414F700F71414146A
:100AE000171410101F101F141414F4141010F01009
:100AF000F000001F101F0000001F14000000FC1475
:100B00000000F010F01010FF10FF141414FF141068
:100B100010101F00000000F010FFFFFFFFFFF0F0BB
:100B2000F0F0F0FFFFFF0000000000FFFF0F0F0FCD
:100B30000F0F38444438447C2A2A3E147E020206B1
:100B400006027E027E0263554941633844443C04F8
:100B5000407E201E2006027E020299A5E7A5991C70
:100B60002A492A1C4C7201724C304A4D4D30304893
:100B7000784830BC625A463D3E494949007E0101F1
:100B8000017E2A2A2A2A2A44445F444440514A4486
:100B90004040444A51400000FF0103E080FF000054
:100BA00008086B6B083612362436060F090F06004C
:100BB0000018180000001010003040FF0101001F55
:100BC00001011E00191D1712003C3C3C3C000000B6
:100BD0000000D5F08D14A1C881CFD9F1AF2000005D
:100BE00000000200090F0000030401000C000000D7
:100BF00000000000000000000000000000040802E7
:100C00000110408040102040804080080204018094
:100C1000402010020110801020404004040404040D
:100C2000030405020202020403020202020606068F
:100C30000606060404020202040000000025002843
:100C4000002B002E00310000000000240027002AA5
:100C5000002D00300012010002EF02014041233656
:100C60008000010102030141726475696E6F204CBE
:100C70004C430055534220494F20426F617264003B
:100C800004030904080B0002020201000904000029
:100C900001020200000524001001052401010104E5
:100CA00024020605240600010705810310004009FF
:100CB000040100020A0000000705020240000007CC
:100CC0000583024000001D07A42D2D0711241FBE1F
:100CD000CFEFDAE0DEBFCDBF11E0A0E0B1E0E4E7A6
:100CE000F5E602C005900D92AA38B107D9F728E0C1
:100CF000AAE8B1E001C01D92A935B207E1F716E0FC
:100D0000C5E6D6E004C02197FE010E94C72EC33677
:100D1000D107C9F70E94FD250C94AD320C94000058
:100D20008CEA93E008950E94A8240E94322480EB6C
:100D300093E00E945E1E6EE180EB93E00E94801EB5
:100D40000E94D72381EC91E00E94080C882319F0BF
:100D500081E080938A01089580EB93E00E94CB1E8E
:100D6000811107C081EC91E00E94EA0B811101C062
:100D7000089580918A0181111EC088E993E00E9444
:100D8000F90880919A03882359F081E080938A01C1
:100D900040919D0360919C0381EC91E00E94300C96
:100DA00080919B03882339F082E080938A0188E94F
:100DB00093E00E94A50880918A01813051F581EC71
:100DC00091E00E94601781EC91E00E948E1481EC0A
:100DD00091E00E94E60B8823E1F081EC91E00E9413
:100DE000E00B672B682B692B71F082E080938A01FE
:100DF00081EC91E00E94E00BAB01BC018BE891E03B
:100E00000E94A41902C010928A0188E993E00E940E
:100E1000A50880918A01823079F48BE891E00E94E4
:100E2000FB1980918D01882339F08BE891E00E94B5
:100E3000371910928A01089508958CEA93E00E9470
:100E4000872288E993E00E94CF0881EC91E00E941C
:100E5000B50C8BE891E00C9443198BE891E00E946B
:100E6000E91881EC91E00E94840B88E993E00C94EE
:100E700089087093E3036093E20380E090E8909325
:100E8000D7038093D60346983E9A47983F9A089591
:100E9000E1E7F0E080818D7F808310929100469899
:100EA0001092DD030895E091D803F091D903CF01AA
:100EB00002969093D9038093D803808191810895FD
:100EC000CF92DF92EF92FF920F931F93CF93DF9316
:100ED0000E945307811520E8920751F4DF91CF91CA
:100EE0001F910F91FF90EF90DF90CF900C944807E7
:100EF00021E02093DD03813020E8920751F48091B6
:100F0000DA039091DB039093D9038093D8030E9476
:100F10005307EC01DF77209769F481E08093DC03CD
:100F200046983FE9C32E3FE0D32EE12CF12CCAEFC7
:100F3000D0E014C08E0120E030E060E472E48FE085
:100F400090E0A90198010E94A82E69017A0181E030
:100F5000C81AD108E108F1081092DC03E091E2031D
:100F6000F091E3030995811103C081E08093DC03D4
:100F70000E945307009771F09C01DE010E94CD2E64
:100F8000DC01CB0129E0B595A795979587952A9522
:100F9000D1F703C08FEF9FEFDC01109290002AE0A1
:100FA00020939100D0929900C09298008093DE0324
:100FB0009093DF03A093E003B093E103809171006D
:100FC000826080937100DF91CF911F910F91FF900C
:100FD000EF90DF90CF900895DC01E1E7F0E09081A1
:100FE0009D7F9083EAECF3E0F093D903E093D8037C
:100FF000F093DB03E093DA03B183A083738362830E
:10100000558344833783268380E090E891878087E7
:101010000C946007EF92FF920F931F93DC01E1E7BE
:10102000F0E090819D7F9083EAECF3E0F093D903A8
:10103000E093D803F093DB03E093DA03B183A0835A
:1010400073836283558344833783268311870087A4
:10105000F386E2861F910F91FF90EF900C9460074A
:101060001F920F920FB60F9211242F933F934F931D
:101070005F936F937F938F939F93AF93BF93EF9300
:10108000FF938091DE039091DF03A091E003B09184
:10109000E103892B8A2B8B2B49F18091DC03811191
:1010A00004C098B180E4892788B98091DE039091CB
:1010B000DF03A091E003B091E103181619061A06A8
:1010C0001B06B4F48091DE039091DF03A091E0034E
:1010D000B091E1030197A109B1098093DE039093D8
:1010E000DF03A093E003B093E10302C00E94600716
:1010F000FF91EF91BF91AF919F918F917F916F91F0
:101100005F914F913F912F910F900FBE0F901F90C5
:10111000189508950C941226CF93DF931F92CDB7A4
:10112000DEB7682F83E290E069830E948F32698185
:10113000681739F083E290E00F90DF91CF910C9423
:1011400097320F90DF91CF910895CF93DF93EC0109
:1011500040E060E080E00E943E2480E090E0A0E07B
:10116000B3E48A879B87AC87BD8780E090E0A0E8E6
:10117000BFE38E879F87A88BB98B1A821B821A8A3E
:1011800083E08B8B82E290E00E948F32823311F4F5
:1011900084E08B8B8FEF8D83DF91CF910895CF9279
:1011A000DF92EF920F93CF93DF93EC0181E291E016
:1011B000998388838DE190E00E9410266C0184E081
:1011C000E82E00E420E840E060E0C6010E94BF1C79
:1011D000D986C8860E9490069F838E8381E08C8387
:1011E000CE01DF91CF910F91EF90DF90CF900C94D3
:1011F000A5088F929F92AF92BF92CF92DF92EF920B
:10120000FF920F931F93CF93DF93EC018B89843070
:1012100038F04A89142F110F140F11951A5D01C06F
:1012200016E28E819F8104960E9422228E819F81E8
:101230000E949E23CA84DB84EC84FD8420E030E09D
:101240004CE052E4C701B6010E94FF2F18162CF49F
:1012500020E030E040E850E424C08E849F84A888D9
:10126000B98823E333E343E35FEBC501B4010E9494
:10127000FF2F1816F4F42FE832EC45EF5CE3C501BC
:10128000B4010E94E72E6E877F87888B998B0E941E
:10129000713020E030E040E850E40E9404309B01CF
:1012A000AC01C701B6010E94E72E6A877B878C8755
:1012B0009D87E12EF12C670183E0C80ED11C8A893D
:1012C000A60198E0899F400D511D11248E819F81B8
:1012D00021E06CE170E004960E940A1F8A89A70150
:1012E0004E5F5F4F98E0899F400D511D11248E8104
:1012F0009F8121E06BE170E004960E940A1F8A89B9
:10130000A60198E0899F400D511D11248E819F8177
:1013100021E06BE170E004960E940A1F8A89A70110
:101320004C5F5F4F98E0899F400D511D11248E81C5
:101330009F8121E06BE170E004960E940A1FA701E3
:1013400060E270E08E819F810E9498230E94E023DA
:101350002E813F81882319F06BE471E002C060E4C4
:1013600071E0C9010E94F32448E0410F50E060E2BF
:1013700070E08E819F810E94982383E290E00E941A
:101380008F32F82E8E819F81FF2019F066E371E085
:1013900002C06BE271E00E94F32440E1410F50E093
:1013A00060E270E08E819F810E9498238D8183305E
:1013B00048F081E290E00E948F32833010F48D83F8
:1013C00001C01D8264E271E08E819F810E94F3243E
:1013D0009D81913049F028F0923061F463E171E031
:1013E00005C06FE171E002C068E171E08E819F810C
:1013F0000E94F3248B898430B1F4185E412F50E0B1
:1014000060E270E08E819F810E9498236BE071E022
:101410008E819F810E94F3244AE050E06C818E818E
:101420009F810E94C725888599850E94271D60E0BD
:10143000888599850E949C1D8E819F8168E0049615
:101440000E942D22882311F081E08B838E819F8161
:1014500064E004960E942D22882339F081E08A837B
:101460008E819F8104960E94DC1E8E819F8160E1A7
:1014700004960E942D22882339F09A899F5F9A8BC7
:101480008B89981301C01A8A8E819F8160E8049627
:101490000E942D22882331F09A89911101C09B89E5
:1014A00091509A8B8E819F8160E204960E942D223A
:1014B000811108C08E819F8160E404960E942D22D4
:1014C000882359F08A89811104C00E94B6230E94A2
:1014D000BD238A89813009F466C08E819F8160E2D4
:1014E00004960E942D22882391F09A89933031F43A
:1014F0008C81815009F05FC088E05DC0923039F482
:101500008D81811102C09D8302C081508D838E81A7
:101510009F8160E404960E942D22882399F08A8995
:10152000833039F48C818F5F893009F046C081E0C7
:1015300044C0823039F48D81823011F41D8202C0A2
:101540008F5F8D8348E350E069E670E08E819F8174
:101550000E94982366E071E08E819F810E94F324AF
:101560006A857B858C859D850E94542FDC01CB018B
:10157000EE24E3940FE128E745E551E065E070E0F3
:101580000E949E208E819F810496DF91CF911F91B2
:101590000F91FF90EF90DF90CF90BF90AF909F9012
:1015A0008F900C940B22FF2011F080E001C081E0AD
:1015B0000E948C0892CF8C83AACF8C83C3CFF90171
:1015C0008130D9F498E2908394E191839AE09383F7
:1015D00026E0228325E0248324E02683858365306A
:1015E00008F487C08FE0838383E28083693008F446
:1015F00080C0928383E086837CC08230A1F483E242
:10160000808388E081838FE083838AE0828385E022
:10161000848384E0868381E08583693008F469C02F
:101620008CE0828366C0833061F49BE0908398E015
:1016300091838383928386E0848381E0868382E042
:1016400057C0843049F482E380838EE181838383B1
:101650008CE0828386E048C0853061F489E0808335
:1016600098E0918383E08383928396E094838683DA
:1016700084E03EC08630C1F4962F990F960F919565
:10168000935D90839EE1918393839EE092839CE09F
:101690009483868391E0958360FF2BC0808382E0F2
:1016A000838383E1848325C0873071F483E2861BC2
:1016B00080838EE1818383838DE082838AE0861B31
:1016C00084836F5F668313C0883098F0862F880FFD
:1016D000860F8195865D80838EE18183838380E19F
:1016E000861B828384E1861B84838AE0868381E073
:1016F0008583413019F48081815004C0423019F44F
:10170000808182508083089508950C941226EF9270
:10171000FF920F931F93CF93DF931F92CDB7DEB746
:101720007C01FC0100811181C80169830E948F3214
:101730006981681719F0C8010E949732C7010F909C
:10174000DF91CF911F910F91FF90EF900895EF924D
:101750000F93FC01278533E0239FC0011124889655
:1017600030E020553E4FE20FF31F69E170E0208129
:10177000222399F06F5F7F4F9B01220F331F620F6F
:10178000731F6F50710916161706BCF4EE24E3940C
:1017900003E023E048E856E00EC0615071097097FD
:1017A0006230710521F7EE24E39403E023E048E87A
:1017B00056E060E070E00E949E200F91EF90089547
:1017C000FC0163857485858596850895FC01828575
:1017D00081700895FC018285869581700895CF936C
:1017E000DF9300D0CDB7DEB783E290E00E948F3266
:1017F000882349F085E192E09A83898360E0CE01F5
:1018000001960E94870B0F900F90DF91CF91089562
:101810000F931F93CF93DF93EC0183E290E00E943C
:101820008F328823B9F085E192E00E948F328E01D9
:1018300005531E4FF801808386E192E00E948F32AB
:10184000C453DE4F888381E0F80120813181243048
:10185000394D09F080E0DF91CF911F910F910895EC
:10186000CF92DF92EF92FF920F931F93CF93DF936C
:1018700000D000D0CDB7DEB78C014C836B830E94C3
:10188000080CF8013A964C816B81811126C0C80181
:1018900083539E4F1192E817F907E1F781E0F801B1
:1018A000828F88E08787E253FE4F108237976083EC
:1018B00033964083433049F081E290E09A838983F4
:1018C000642FCE0101960E94870B84E099EDF80108
:1018D000E553FE4F9183808317C07F0184E5C82EB6
:1018E000D12CC6010E948F32F70181937F01FFEF57
:1018F000CF1ADF0A87E1C81682E0D80691F781E0A7
:10190000F801E253FE4F8083F801848195810E94A3
:101910001E1CF801E353FE4F10823D9780816AEE52
:10192000681BF801848195810E94231C9801205333
:101930003E4FC80186539E4FD801A853BE4F09534E
:101940001E4FFC0140816C91F80180810E94DF0AEA
:101950000F900F900F900F90DF91CF911F910F91EB
:10196000FF90EF90DF90CF900895CF92DF92EF92AB
:101970000F931F93CF93DF93EC0189E291E099835A
:1019800088830E9490069B838A8343E061E0CE01B6
:101990000E94300C87E090E00E9410268C016F8539
:1019A0000E94061C1D830C838DE190E00E9410268E
:1019B0006C01EE24E39400E429E340E063E20E943A
:1019C000BF1CDF82CE8281E090E00E9410268C0155
:1019D00060EE73E20E94390719870887DF91CF9183
:1019E0001F910F91EF90DF90CF900895EF920F939A
:1019F000FC01E60FF11D648970E08089EE24E39418
:101A000003E023E04EE856E090E00E949E200F9114
:101A1000EF9008950F931F93CF93DF938C01C0E055
:101A2000D0E0F801208D30E00C2E02C035952795CE
:101A30000A94E2F720FF04C06C2FC8010E94F60C44
:101A40002196C830D10569F7DF91CF911F910F9191
:101A500008952F923F924F925F926F927F928F9252
:101A60009F92AF92BF92CF92DF92EF92FF920F932D
:101A70001F93CF93DF93CDB7DEB72F970FB6F894B0
:101A8000DEBF0FBECDBF9F878E87212C312C21EF6B
:101A90003FEF3C832B83F12C1D821A828C539E4F87
:101AA0009D878C878FEF8F0D90E1899F9001112486
:101AB00039872887D1015096BF83AE834101B0E2B8
:101AC0008B0E911CEE85FF858E0E9F1E612C712C56
:101AD000E20DF31DFB87EA87D4011C91112379F0F5
:101AE0006301CC0CDD1CC60CD71CB8E2CB0ED11C9C
:101AF000EE85FF85F18EAB80BC80F1E0FD838FEF3A
:101B0000810F8E3708F062C0EE24E39403E023E0F7
:101B10004BE856E0B501C6010E949E20062D6114D7
:101B2000710471F08FEF860DEA85FB85E80FF11DDA
:101B300080A1811709F4DAC019820F3011F407C0AF
:101B40001982D40111968C91811709F4E0C000E04C
:101B5000240142185308FF2069F0E885F985E40D57
:101B6000F51D8081811709F4E4C0E12CB9E1FB1275
:101B700002C009C0E12CEE81FF81E40DF51D8081DA
:101B8000811709F4E5C0512C3981332361F1EE202E
:101B900009F4F1C0AE85BF8512968D919C91139783
:101BA00020E0A501B60104960E940A1F002309F453
:101BB000E4C0EE85FF858281938120E0A501B60116
:101BC0006E5F7F4F04960E940A1F11C01F3721F5D8
:101BD000EE24E39403E023E045E856E0B501C601B6
:101BE0000E949E2052C00023B9F0E110E2CF5520A0
:101BF00099F0AE85BF8512968D919C91139720E048
:101C0000A5014E5F5F4FB6016E5F7F4F04960E9445
:101C10000A1F39813111B4C017FF37C0EE24E39495
:101C200003E023E04BE856E0B501C6010E949E2088
:101C3000EC85FD858081811106C01F3F31F01F5F5B
:101C4000D4011C9320C01F3FF1F4D4011C9229E160
:101C500030E040E253E069E170E080E991E00E9409
:101C6000EC07EE85FF854385548565857685838DF4
:101C7000948DA58DB68D840F951FA61FB71F8387E2
:101C80009487A587B68731E03A838FEF681A780A80
:101C90009FEF891A990AA0E16A16710409F01CCF16
:101CA000F394EB81FC813396FC83EB832E803F80A1
:101CB000FAE1FF12F7CEEE85FF85EC53FE4F8081EF
:101CC000882311F081508083AE85BF851A968C9150
:101CD000BD81B0FB84F9EE85FF85828782FF71C0EC
:101CE0003A8131116EC08B7F82876BC0AE85BF8514
:101CF00012968D919C91139720E0A5014F5F5F4F45
:101D0000B60104960E940A1F31E0398316CFAE85D2
:101D1000BF8512968D919C91139720E0A5014F5F8E
:101D20005F4FB6016E5F7F4F04960E940A1F01E06D
:101D30000FCFEE85FF858281938120E0A501B6015A
:101D40006F5F7F4F04960E940A1FEE24E3940ECF2C
:101D5000AE85BF8512968D919C91139720E0A501C9
:101D60004E5F5F4FB6016F5F7F4F04960E940A1F60
:101D70005524539409CF011112C0552009F44CCFBA
:101D8000AE85BF8512968D919C91139720E0A50199
:101D90004E5F5F4FB60104960E940A1F3DCF55204B
:101DA00009F43ACFEE85FF858281938120E0A50179
:101DB0004E5F5F4FB6016E5F7F4F04960E940A1F11
:101DC000DFCF2F960FB6F894DEBF0FBECDBFDF91E9
:101DD000CF911F910F91FF90EF90DF90CF90BF9028
:101DE000AF909F908F907F906F905F904F903F90BB
:101DF0002F900895EF920F931F93CF93DF93EC01F1
:101E00008A819B81EE24E39400E410E022E230E03A
:101E100040E050E062E270E004960E9404208A8173
:101E20009B812CE530E040E050E06CE570E00496EA
:101E30000E940420DF91CF911F910F91EF900895A0
:101E40004F925F926F927F928F929F92AF92BF92CA
:101E5000CF92DF92EF92FF920F931F93CF93DF9376
:101E6000DC011A968C911A9786FD00E05A967C91B7
:101E70005A97002311F05FE701C0572F30E021503F
:101E8000310985E0829FE001839FD00D112420E07D
:101E900030E087E0E82EF12CC62ED12CF901EC0FB2
:101EA000FD1FE953FC4FE49180E090E04E2E512C51
:101EB000B42EB20E3D0110E1B19E600C711C1124D4
:101EC00053014701881A990AF20102C0F595E79576
:101ED0008A94E2F7E0FF11C04C018C0C9D1CF0E1EC
:101EE0008F16910408F052C0962E980E3501690C99
:101EF000711CF30190A0911049C0019688309105A2
:101F000001F72F5F3F4F2530310541F680E090E02B
:101F1000695FFC01EC0FFD1FE953FC4FE49127E0E2
:101F200030E08E2E912CF42EF80E3D0110E1F19E42
:101F3000600C711C112473016401022E02C0D5943F
:101F4000C7940A94E2F7C0FE06C0D62ED21AF70153
:101F5000ED0DF11D50A32150310970F70196853028
:101F60009105B9F67F5F7F3721F05A967C935A9797
:101F700004C081E05A968C935A97002349F01A9630
:101F80008C911A9780641A968C9302C080E001C0ED
:101F900081E0DF91CF911F910F91FF90EF90DF9043
:101FA000CF90BF90AF909F908F907F906F905F90F9
:101FB0004F9008953EEF321B232F3B3A08F42BEA53
:101FC000860F911DFC0130E1439FE00DF11D1124AE
:101FD00020A30895FB0150E0CF01861B970B8417C7
:101FE00095072CF481918213F7CF81E0089580E06A
:101FF00008952F923F925F926F927F928F929F925D
:10200000AF92BF92CF92DF92EF92FF920F931F9306
:10201000CF93DF93CDB7DEB72B970FB6F894DEBF23
:102020000FBECDBF7C0119821A821B821C821D82C9
:10203000FC01EE52FE4F2081269518E0121B07E0AE
:10204000020F3A978081853008F471C06EE170E02C
:1020500080E090E00E94D625672B682B692B09F061
:1020600066C051E05E8347018AE2881A8EEF980AC3
:10207000F40180818A3058F117FD10E0202F0031E3
:102080000CF02FE0A22E022E000CBB08412F012ED7
:10209000000C550BC501841B950B97FD019695957A
:1020A0008795840F951FAC014350510958874F8382
:1020B000212C8FEF810F821B8987C7018A539E4F86
:1020C0003C01F701ED52FE4FFB87EA872AC062E030
:1020D00070E080E090E00E94D625613071058105B6
:1020E000910551F66BC0F40160816B3010F570E022
:1020F0006F5F7F4F072E000C880B990B0E94D6252F
:102100006130710581059105A1F463E070E080E024
:1021100090E00E94D625DC01CB010196A11DB11DE6
:10212000180F812F90E08A159B05ECF247C01E82A4
:102130009ACF8F81810F282F30E03984380EA21674
:10214000B3060CF0382EC12CD12CF401808190E024
:10215000C816D906D4F66AE070E080E090E00E94EC
:10216000D62555245394560E252D422DBE016F5F62
:102170007F4FC7010E94EA0F811115C00E81252DE6
:1021800040E0632DC7010E94200F882361F0E1E049
:10219000F0E0EC0FFD1FE20DF11D5082F301808194
:1021A0008F5F80832394F3019081EA85FB85808192
:1021B000981720F4FFEFCF1ADF0AC7CF2B960FB680
:1021C000F894DEBF0FBECDBFDF91CF911F910F916D
:1021D000FF90EF90DF90CF90BF90AF909F908F9047
:1021E0007F906F905F903F902F9008953F924F9215
:1021F0005F926F927F928F929F92AF92BF92CF9297
:10220000DF92EF92FF920F931F93CF93DF93CDB79F
:10221000DEB72D970FB6F894DEBF0FBECDBF6C01B1
:10222000362E542E122FF7011082962E412C772431
:102230007394191520F1852C5601A90CB11C0815B1
:10224000E0F0F50180E1889EE00DF11D112430A140
:102250003B3A38F43F3719F4F7017082D6C0311198
:10226000D4C0931003C080E090E0E8C09116D9F389
:102270008514C9F38012C3C0F6CF9394DACF33200C
:1022800059F1E52CF12C470194E0880C991C9A95A2
:10229000E1F78FEF830D880E911CA12CB12C602EDD
:1022A000712C6E147F04C4F0F501E80DF91DEC0DDE
:1022B000FD1D20A1222349F0442DBE016F5F7F4FF9
:1022C000C6010E94EA0F8111CECFFFEFEF1AFF0A7D
:1022D00080E1A80EB11CE5CF1F3058F5E52CF12C9C
:1022E000470184E0880C991C8A95E1F781E0810F11
:1022F000880E911CA12CB12C602E712C6E147F04C1
:10230000C4F0F501E80DF91DEC0DFD1D20A12223FF
:1023100049F0442DBE016F5F7F4FC6010E94EA0F56
:102320008111A1CF9FEFE91AF90AE0E1AE0EB11CCD
:10233000E5CFA32CB12CE12EF12C0931F8F44501A5
:1023400081E0800F3601F0E18F9F600C711C112439
:10235000E814F9049CF0F301E80DF11D20A12223FB
:1023600049F0442DBE016F5F7F4FC6010E94EA0F06
:10237000811179CF8FEF881A980AEACF5520F9F0AA
:1023800045018FEF850D360190E1899F600C711C2E
:102390001124E814F9049CF0F301E80DF11D20A1CB
:1023A000222349F0442DBE016F5F7F4FC6010E947A
:1023B000EA0F811158CFEFEF8E1A9E0AEACF842DD3
:1023C00090E0A0E0B0E0F601838F948FA58FB68FE8
:1023D000EA18FB08FFEFEF1AFF0A10E005191109D0
:1023E0000F5F1F4FE09E9001E19E300DF09E300D7B
:1023F0001124429EC001439E900D11241FC08BE00A
:10240000841508F430CF83941ACF9BE0941508F418
:102410002ACF232F442DBE016F5F7F4FC6013D871A
:102420000E94EA0F3D858111EECFE1E0F0E0EC0F74
:10243000FD1FE40DF11D30834394E5CF2D960FB6BB
:10244000F894DEBF0FBECDBFDF91CF911F910F91EA
:10245000FF90EF90DF90CF90BF90AF909F908F90C4
:102460007F906F905F904F903F9008952F923F9292
:102470004F925F926F927F928F929F92AF92BF9294
:10248000CF92DF92EF92FF920F931F93CF93DF9340
:10249000CDB7DEB72A970FB6F894DEBF0FBECDBF1B
:1024A0006C01562F742F80E1861B8F83812C912C19
:1024B0001A82A12CB12C262E312C482C9F818916F2
:1024C000C0F510E03101680C711C450E812F90E0C1
:1024D0008615970554F530E0371729F1511708F1A3
:1024E00062147304F4F0CE0101967C01072F242DB1
:1024F000432F612FC6013A87588779870E94F610CB
:10250000EB2DF0E03A8558857985E817F90748F40E
:10251000B82EF601A38CF981FA837E834D82532E67
:102520001C833F5FD9CF1F5FD1CF8FEF881A980AE6
:10253000C4CF0E814D801C812A2D30E040E050E058
:10254000F601238F348F458F568FBB2009F415C1B8
:102550009284C6018C539E4F7C019A81992331F15C
:10256000689492F8928682E3F7018083560111E025
:10257000E12CF12C0FEF010FF501EE0DFF1D80A1F5
:10258000882331F0212F402F6E2DC6010E94DA0FD3
:10259000FFEFEF1AFF0A80E1E816F10469F71F5F09
:1025A00090E1A90EB11C1B3119F7E7C06B2D70E04B
:1025B00080E090E00E94862EC901689492F8F601AE
:1025C0009286E653FE4F3081323011F484E10BC025
:1025D000880F991F8A3F910528F4220F275EF70183
:1025E000208303C08AEFF7018083352C212CA42C93
:1025F000B12C812E912CC50188199909632C712C5D
:1026000002970CF46BC0312F730184E0EE0CFF1CB9
:102610008A95E1F7EC0CFD1C431648F0F701E30F37
:10262000F11D80A18B3A08F480C03F5FF5CF332DB8
:102630007601EA0CFB1C031760F0F70180E1389F7C
:10264000E00DF11D112480A18B3A08F478C03F5FA2
:10265000F2CFE02FF0E0FB83EA83342D7601F0E146
:102660000F9FE00CF11C1124131748F4F701E30F3E
:10267000F11D80A18B3A08F46CC03150F5CF302F9A
:102680007601E80CF91C331660F4F70180E1389FFD
:10269000E00DF11D112480A18B3A08F464C0315083
:1026A000F2CF8A149B0444F41F5F812F90E00196BF
:1026B0008A159B050CF44A94EA81FB816E167F060D
:1026C0000CF095CF3394242D30E0812F90E00196CB
:1026D000821793070CF08BCF015089CF802F90E0A9
:1026E0008619970902970CF08ECF8E81851508F414
:1026F00044C01C811219760190E1599EE00CF11C36
:102700001124612F620DFD81F61768F02394F70103
:10271000E60FF11D80A18B3AA0F7222D452DC601B1
:102720000E94DA0FEECF5394E0CF2394222D432D55
:10273000632FC6013A870E94DA0F3A8576CF239439
:10274000222D432F642DC6013A870E94DA0F3A8565
:102750007ECF2394222D402F632FC6013A870E94FB
:10276000DA0F3A858ACF2394222D432F612FC60199
:102770003A870E94DA0F3A8592CF2A960FB6F894DC
:10278000DEBF0FBECDBFDF91CF911F910F91FF90A4
:10279000EF90DF90CF90BF90AF909F908F907F9001
:1027A0006F905F904F903F902F9008956F927F921F
:1027B0008F929F92AF92BF92CF92DF92EF92FF9251
:1027C0000F931F93CF93DF93EC01762E8C010C5E59
:1027D0001F4FE12CF12C812C912C540183949BEA06
:1027E000692E23E0C22ED12C388DEE2D832F90E060
:1027F0000E2C02C0959587950A94E2F780FF53C08E
:10280000D8018C91882309F44EC0711002C0815008
:102810008C93D8012C91269D212D1124269545E0DD
:10282000420F14978C914A3108F049C090E0889784
:10283000B6010E94722E603108F041C02C5FCE01BB
:10284000860F911DDC0150E1259FA00DB11D1124C3
:1028500090962C911216C4F4DC0150E1459FA00D16
:10286000B11D112490962C93D501C40104C0880F8A
:10287000991FAA1FBB1FEA95D2F780958323888FE3
:10288000CE010E9436121BC02223C9F0D501C4011B
:1028900004C0880F991FAA1FBB1FEA95D2F7809525
:1028A0008323888F0CC0D501C40104C0880F991FF1
:1028B000AA1FBB1FEA95D2F780953823388F8FEF78
:1028C000E81AF80A0F5F1F4FA4E0EA16F10409F0B6
:1028D0008BCFDF91CF911F910F91FF90EF90DF9001
:1028E000CF90BF90AF909F908F907F906F90089502
:1028F000FC01E054FE4F9C01205D3F4FDF015197EA
:102900004C914293E217F307C9F7FC01B09611927C
:10291000E217F307E1F761E00C94D6136F927F9210
:102920008F929F92AF92BF92CF92DF92EF92FF92DF
:102930000F931F93CF93DF9300D0CDB7DEB76C0119
:102940004C0121E3821A2EEF920AD4012C91FC0152
:10295000828193812223B1F044E150E060E370E092
:102960000E94982360EC73E0D60112968D919C91A1
:1029700013970E94F324F6018281938104960E94AA
:102980000B228DC20E949E235601F9E3AF1AFEEF7F
:10299000BF0AD5018C91813061F4EE24E39407E203
:1029A00024E246EB55E069E170E08CE590E00E949E
:1029B0009E20F5018081823061F4EE24E3940AE2E6
:1029C00024E24AED54E066E170E08CE590E00E947C
:1029D0009E20D5018C91833061F4EE24E3940BE2C8
:1029E00024E249EF53E065E170E08CE590E00E945D
:1029F0009E20F6016785848195810E94261CD60160
:102A00001A968C9182FD08C083FD06C0F601EE5334
:102A1000FE4F80818F5F8083F60182859601285367
:102A20003E4F790184FD0EC0D9019C919A3050F03F
:102A30001C928F7BE054FE4F1182108280628D7F4A
:102A4000F6018287D6011A969C911A9795FF3BC191
:102A5000860100541E4FF801808191810196918377
:102A600080831A966C911A976695617016968D916F
:102A70009C9117970E949C1DC6010E94FA0ED801D6
:102A80008D919C918A3E910588F58832910558F484
:102A900040E450E0481B590B66E270E0F601828189
:102AA00093810E949823D8018D919C918897CC970F
:102AB00048F448E150E066E270E0F60182819381DB
:102AC0000E949823D8018D919C918436910558F0ED
:102AD0004CE750E0481B590B66E270E0F60182813A
:102AE00093810E94982366EB73E08DC08C32B1E035
:102AF0009B07B8F462E171E0681B790B76956795E6
:102B0000F60182858260828716163CF4062E000C40
:102B1000770B880B990B0E948F26D8018C916AEE57
:102B200039C08E35F1E09F0760F5D5012C91283032
:102B300060F544E150E064E370E0F6018281938146
:102B40000E94982361EB73E0D60112968D919C91BF
:102B500013970E94F3244CE150E061E370E0F6012A
:102B6000828193810E9498236BEA73E0D6011296CA
:102B70008D919C9113970E94F324F60182858D7F9D
:102B80007BC08836F1E09F0738F4D5012C912830BE
:102B900038F468E6681B57C08438F3E09F07D8F51F
:102BA000D5012C912830D9F544E150E065E270E080
:102BB000F601828193810E94982361EA73E0D60135
:102BC00012968D919C9113970E94F3244CE150E052
:102BD00066E370E0F601828193810E9498236DE99B
:102BE00073E0D60112968D919C9113970E94F32465
:102BF00044E250E06EE270E0F601828193810E942F
:102C0000982365E973E0D60112968D919C911397F4
:102C10000E94F32432C08C3DB5E09B07D0F4F5014F
:102C20002081283051F5D6011A962C911A972260EE
:102C30001A962C938458934065E070E00E945E2EB3
:102C40008AE0861B682FF601848195810E94231CEF
:102C500014C08C3D954089F4D5018C91883069F47D
:102C600082E290E09A83898362E3CE0101960E941A
:102C7000870BF601828581608287D8018D919C91B6
:102C80008836914009F0A0C0F5018081883008F0B5
:102C90009BC0D6011A969C911A979F7D1A969C9379
:102CA000F801118210828F5FD5018C93F701108299
:102CB000960120533E4FF601E653FE4F408160E0FF
:102CC0000E94DF0A81C0960120533E4FD9018C91AA
:102CD00091FD8695F601EE53FE4F9081981708F40A
:102CE0005FC01082329780819181019691838083A9
:102CF000359670817F5F7083D7016C91C6018F52CA
:102D00009E4FA6014A535E4F3A01435F5F4F6A30C0
:102D100070F4DC011C91711750F4D3011C91DA019D
:102D20007C91171720F4C6010E94F90F36C0D30119
:102D30007C91DA014C91741728F0D3011C92DC01CC
:102D40004C914083408150E0DC017C91C6018C5263
:102D50009E4FDC018C9190E0870F911D84179507A1
:102D6000E4F41082F601E753FE4F80818F5F808389
:102D7000A6014B525E4FDA019C91891770F06F5F8C
:102D8000D7016C931082F3011082F601E653FE4FD7
:102D90004081D5018C910E94DF0AC6010E947814FF
:102DA000F601628566956170868197810E949C1DFF
:102DB000C6010E940A0DC6010E94290DC6010E948B
:102DC000FA0EC6010E94A70B42E050E06FE570E0EA
:102DD000D60112968D919C9113970E949823F6012B
:102DE00043855485658576852AE030E0828193812C
:102DF0000E94BA2542E050E062E070E0D6011296EF
:102E00008D919C9113970E9498236FE873E0F601CF
:102E1000828193810E94F324D7019C912FEF290F87
:102E2000F601828193814FE050E02930C8F467E0D9
:102E300070E00E9498234AE050E0D5016C91F601C1
:102E4000828193810E94C7256FE2D60112968D91EF
:102E50009C9113970E9419254AE050E0F70107C0A2
:102E60006EE070E00E9498234AE050E0F501608136
:102E7000D60112968D919C9113970E94C725F60159
:102E80008281938104960E940B22F601E253FE4F49
:102E90008081882321F081E0D4018C9310820F90EF
:102EA0000F90DF91CF911F910F91FF90EF90DF90E6
:102EB000CF90BF90AF909F908F907F906F9008952C
:102EC000AF92BF92CF92DF92EF92FF920F931F9338
:102ED000CF93DF9300D0CDB7DEB76C01DC01129643
:102EE0008D919C91139704960E942222F601828173
:102EF000938168E004960E942D22860101531E4FA3
:102F0000882351F1D8018C91882329F01C92C601A5
:102F10000E94EF0B21C081E0F801808383E290E002
:102F20000E948F328823C1F07601FAE0EF0EF11C87
:102F300024E5A22EB12CD7016D917D01BA82A98220
:102F4000CE0101960E94870BBFEFAB1ABB0AE7E1E7
:102F5000AE16E2E0BE0679F7D8018C9181112CC142
:102F6000F601868197810E94271DD6011A968C91C1
:102F70001A9785FD21C159966C91599714968D9198
:102F80009C911597663138F070E065517109262FD4
:102F9000220F620F01C060E00E94231CF601E35380
:102FA000FE4F808181113EC05601BDE3AB1ABEEFDA
:102FB000BB0AF5018081811105C0D60159969C910B
:102FC000993181F5F60192858F5FD5018C939D7FB4
:102FD00098609287813081F498E5E92E92E0F92E8D
:102FE00006E910E02CE231E048EC50E06CE271E0E0
:102FF00080E991E00E940A08F5018081843661F43D
:1030000040E060E080E00E943E24D6011A968C9158
:103010001A9781601A968C93F601848195810E949B
:10302000171CCAC0D6011F968C911F97882311F1D7
:1030300012968D919C91139760E204960E942D2226
:10304000882331F0F601878581508787178E12C05B
:10305000D60112968D919C91139760E204960E947E
:103060001022882339F0F601878D843008F099C04A
:103070008F5F878FD6011F968C911F978F3010F529
:1030800012968D919C91139760E404960E942D22D4
:10309000882331F0F60187858F5F8787178E12C0EE
:1030A000D60112968D919C91139760E404960E942C
:1030B0001022882339F0F601878D843008F076C01D
:1030C0008F5F878FD60112968D919C91139760E840
:1030D00004960E941022F601928580FB91F9928756
:1030E0008281938164E004960E942D22882309F452
:1030F0004FC0D60158968C9190E0A12CB12C9C0128
:103100000A2C02C0359527950A94E2F720FD38C0B5
:1031100083E2E82EF12C00E911E023E230E040E206
:1031200053E063E270E084E893E00E940A08F6014D
:10313000EA0DFB1DD6011F968C911F97982F990FB2
:10314000890F885D808B85E3848B59968C918631BD
:1031500038F090E04597982F990F890F8B5C848BFE
:1031600081E090E0A0E0B0E004C0880F991FAA1FA2
:10317000BB1FAA94D2F7F601208D822B808F08C046
:10318000FFEFAF1ABF0A24E0A216B10409F0B7CFCF
:1031900060E0C6010E94D61360E0C6010E94D6130B
:1031A0000BC0178E87858150878764CFF601178EF5
:1031B00087858F5F878786CF0F900F90DF91CF91A4
:1031C0001F910F91FF90EF90DF90CF90BF90AF9045
:1031D000089508950C941226CF92DF92EF92FF92F9
:1031E0000F931F93CF93DF9300D000D000D0CDB7C3
:1031F000DEB77C0185E492ECA7E3BFE089839A8384
:10320000AB83BC83CE0101966C0100E110E0F601B6
:1032100061916F011E830D83CE0105960E94870B7D
:103220000F5F1F4F0431110591F7F3E0EF0EF11C12
:1032300004E210E0F70161917F011E830D83CE014E
:1032400005960E94870B0F5F1F4F0E34110591F7F3
:1032500026960FB6F894DEBF0FBECDBFDF91CF919B
:103260001F910F91FF90EF90DF90CF900895FC0198
:1032700015A617A686E086A710AA8FE581AB82ABBC
:1032800083AB12820895CF92DF92EF92FF920F9359
:103290001F93CF93DF9300D000D0CDB7DEB77C0172
:1032A0008EE391E0F701918380830E949006F701FD
:1032B00095AB84ABCE0101966C0100E110E0C80132
:1032C0000E948F32F60181936F010F5F1F4F04310F
:1032D0001105A9F789819A81AB81BC81F7013396E9
:1032E0008534924CA743BF4091F48F0184E2C82EED
:1032F000D12CC6010E948F32F80181938F01FFEF1C
:10330000CF1ADF0A2EE4C216D10499F70EC0C70106
:103310008D96108213821482158216823796E817D2
:10332000F907B9F7C7010E94EC18C7010F900F9079
:103330000F900F90DF91CF911F910F91FF90EF9021
:10334000DF90CF900C943719CF92DF92EF92FF92DB
:10335000CF93DF93FC0186E086A7DF0180E090E059
:103360001696CD90DD90ED90FC901997C416D50679
:10337000E606F70610F486A705C001961796863074
:10338000910571F786A5863078F5EF01A69684E061
:1033900090E026A530E0DE01179782179307B4F07E
:1033A0001396CD90DD90ED90FC9016971A96CD92E5
:1033B000DD92ED92FC921D97CD90DD90EC901297EE
:1033C000C882D982EA820197ED01E3CF81E085A727
:1033D000A7E0A29FC001A39F900D1124E80FF91F41
:1033E0004683578360877187DF91CF91FF90EF907D
:1033F000DF90CF9008955F926F927F928F929F920D
:10340000AF92BF92CF92DF92EF92FF920F931F93F2
:10341000CF93DF93CDB7DEB72A970FB6F894DEBF10
:103420000FBECDBF8C01FC0184A995A90E949E23EB
:1034300040E050E068E270E0F80184A995A90E949C
:10344000982365EA76E0F80184A995A90E94F324FF
:10345000F80185A5813009F00EC184A995A90496CB
:103460000E9422228AE0E0E3F1E0DE011196019061
:103470000D928A95E1F7F80181A992A9A3A98B83FE
:103480009C83AD8340E150E062E070E084A995A99F
:103490000E949823F80187A58F5F843111F087A7D8
:1034A00002C0F80117A6F80186A5893040F440E172
:1034B00050E067E070E084A995A90E949823F80184
:1034C00066A570E06F5F7F4F4AE050E084A995A940
:1034D0000E94B325F80187A58A30A0F460A9F6E020
:1034E0006F9FB0011124665E7F4F42E150E0F8010A
:1034F00084A995A90E9498236FE5F80184A995A94C
:103500000E94192540E150E06EE070E0F80184A9C6
:1035100095A90E949823BE016F5F7F4FF80184A98F
:1035200095A90E941725F80186A597E0899FE00DCF
:10353000F11D112446815781608571852AE030E0B4
:10354000F80184A995A90E94BA25F80184A995A932
:1035500060E804960E942D22882369F0F80180A972
:10356000E80FF11D81A990EC980F9A3110F48F5F4C
:1035700001C081E481ABF80184A995A960E10496BA
:103580000E942D22882369F0F80180A9E80FF11D1F
:1035900081A99EEB980F9A3110F4815001C08AE501
:1035A00081ABF80184A995A964E004960E942D22BC
:1035B000811109C0F80184A995A960E404960E94CC
:1035C0002D22882341F0F80180A98F5F833009F014
:1035D00014C1F80110AAF80184A995A960E2049623
:1035E0000E942D22882349F0F80180A9811102C090
:1035F00082E002C08150F80180ABF80184A995A94E
:1036000068E004960E942D228823A9F1F80181A97F
:103610008F3531F482A98F3519F483A98F3559F18B
:10362000F80186A59801F7E08F9F200D311D112428
:10363000F80181A992A9A3A9F90183839483A583A1
:10364000F80126A5F7E02F9F9001112480E090E07B
:1036500040E2FC01E20FF31FE00FF11F53815F35E1
:1036600009F4438301968330910599F7C8010E94BC
:10367000EC18F80115A6F80185A58111A2C084A94E
:1036800095A904960E9422227801F3E0EF0EF11C26
:103690008CE0C82ED12CA12CB12C9AE0692E712C73
:1036A0002AE0822E912C36E0532EA60162E070E0D3
:1036B000F80184A995A90E949823A60167E070E00B
:1036C000F80184A995A90E949823FFEFAF1ABF0AB9
:1036D0004AE050E0B501F80184A995A90E94B325FC
:1036E000A6016EE070E0F80184A995A90E949823D4
:1036F000F7014381548165817681F80184A995A9F8
:10370000452B462B472B29F461E976E00E94F324F0
:103710003BC0F70120813181428129833A834B8369
:103720001C826DE271E00E941725BE016F5F7F4F22
:10373000F80184A995A90E941725F7018381948136
:1037400020E02F5FB3010E94722ECB010097C9F7D2
:10375000C401821B9109589EB001599E700D11241D
:103760006C5B7F4FA601F80184A995A90E9498235C
:10377000F70143815481658176812AE030E0F801C8
:1037800084A995A90E94BA25F9E0CF0ED11C87E043
:10379000E80EF11C96E0A916B10409F086CFF801F5
:1037A00084A995A968E004960E942D22811127C062
:1037B000F80184A995A964E004960E942D22811144
:1037C0001EC0F80184A995A904960E940B222A968E
:1037D0000FB6F894DEBF0FBECDBFDF91CF911F9122
:1037E0000F91FF90EF90DF90CF90BF90AF909F90A0
:1037F0008F907F906F905F90089580ABECCE81E0CA
:10380000F8018283DECF08950C941226CF93DF93C4
:10381000EC0186E491E0998388830E9490069B8363
:103820008A831D821C821E82DF91CF910895FC0144
:103830002581211102C021E025830895FC01158214
:10384000148216820895FC01648308958F929F92DA
:10385000AF92BF92CF92DF92EF92FF920F931F939E
:10386000CF93DF93EC0183E0689F60011124560140
:1038700083E2A80EB11C6C818D81882309F461C09C
:10388000893180F48F5F8D838E818D5F8E83EE24EE
:10389000E3940BE02CE04FEA56E065E370E0C501ED
:1038A0000E949E208D81893129F48E81882311F018
:1038B00081508E83E12CF12C1AE0460189E2880EBA
:1038C000911C5E81852F612F0E94522E282F30E09F
:1038D000E216F30674F48A819B8101E02E2D4AE3FF
:1038E00050E0B40104960E94281F8FEFE81AF80AEE
:1038F000E8CF40E060E0852F0E943E248EE2C80EB3
:10390000D11CCA14DB045CF105E310E063E070E055
:1039100080E090E00E94D625672B682B692B41F44C
:103920008A819B8120E0A801B50104960E940A1FAC
:103930000F5F1F4F0034110549F78FEFA81AB80A1F
:10394000E0CF062E000C770B6B5C7F4FEE24E394E8
:103950000BE02CE04FEA56E0C5010E949E20DF916B
:10396000CF911F910F91FF90EF90DF90CF90BF907C
:10397000AF909F908F90089508950C941226AF9267
:10398000BF92DF92EF92FF920F931F93CF93DF933B
:1039900000D01F92CDB7DEB75C018EE491E0F50157
:1039A000918380832B834A8369830E949006F5016B
:1039B000948F838F6981668B2B81278B4A81408FFF
:1039C000018FE28E8501045F1F4F7501F6E1EF0E56
:1039D000F11CF501D688678970E080E090E00E94D4
:1039E000D625F8013A976D0D6083F501D08C618D75
:1039F00070E080E090E00E94D6256D0DF8016083B4
:103A000063E070E080E090E00E94D625F80120811C
:103A1000DC01CB0136E0880F991FAA1FBB1F3A9526
:103A2000D1F7820F911DA11DB11D81938F01EE155C
:103A3000FF0579F60F900F900F90DF91CF911F91B6
:103A40000F91FF90EF90DF90BF90AF900895BF92DD
:103A5000CF92DF92EF92FF920F931F93CF93DF935A
:103A6000EC017C018CE0E80EF11C8E010E5F1F4F13
:103A70006E0196E1C90ED11CF7018081F82FFF730A
:103A8000BF2E682F62956695669563706F5F8A8D0D
:103A90008130E1F4B60E2B2D30E0488D898D90E019
:103AA000840F911D821793078CF4BE886F8970E094
:103AB00080E090E00E94D6256B0DF8016083B88C01
:103AC00063E070E080E090E00E94D6258A8D84302B
:103AD000D9F4F80180818230A0F4B88C698D70E04F
:103AE00080E090E00E94D625B60E9F898E89890FCE
:103AF000F801808363E070E080E090E00E94D625CA
:103B000003C0861BF80180836150F0E46F9FB00C06
:103B10001124F701B1927F010F5F1F4FEC15FD05D6
:103B200009F0AACFDF91CF911F910F91FF90EF90F5
:103B3000DF90CF90BF9008958F929F92AF92BF92E7
:103B4000CF92DF92EF92FF920F931F93CF93DF9369
:103B5000EC01E62E5C018CE0A80EB11C8E010E5F1C
:103B60001F4F4501F401F1904F018F2D8F73C82E27
:103B7000D12CF801608170E08B8D9C8D21E0A60135
:103B800004960E940A1FE11009C0F294F694F6947C
:103B900083E0F82281E08F0D833000F18A8D81303F
:103BA00061F4F801608170E08B8D9C8D21E0A601AD
:103BB0004F5F5F4F04960E940A1F8A8D843071F414
:103BC000F8016081862F90E0BC016F5F7F4F8B8D85
:103BD0009C8D21E0A60104960E940A1F0F5F1F4FD3
:103BE0000A151B0509F0BECFDF91CF911F910F91F0
:103BF000FF90EF90DF90CF90BF90AF909F908F900D
:103C0000089580E090E00895089508950C948F320F
:103C1000CF93DF93EC010E94E32386E591E0998343
:103C200088831D821E8280E18F838FEF9FEF9C83AC
:103C30008B831C861D861E861F86188ADF91CF9176
:103C40000895EF92FF920F931F93CF93DF9300D0CD
:103C5000CDB7DEB7F62E042FE22E0E947C24182F5B
:103C60001F211F1122C061E089E00E94642488ECBA
:103C700090E00E94842460E0802F0E94642482E00F
:103C800090E09A8389836E2DCE0101960E94870B66
:103C900084EF91E00E94842461E0802F0E946424DC
:103CA0000E947C2481238117D9F30F900F90DF911C
:103CB000CF911F910F91FF90EF900895CF93DF93D5
:103CC000EC010E947C2482FF15C060E089E00E9424
:103CD00064242FEF4BE064E8CE010E94211E20E017
:103CE0004AE064E1CE010E94211E88EC90E00E942F
:103CF0008424E7CF61E089E0DF91CF910C946424C4
:103D0000FC0170E088EE93E00E94722E67830895B4
:103D1000CF92DF92EF92FF921F93CF93DF93EC014C
:103D20000E945E26CC84DD84EE84FF8418891123F2
:103D300031F02885621B698B188A10E023C06C154E
:103D40007D058E059F0538F48C2D861B8230D0F0C2
:103D50000E94092417C021E0288B688779878A8709
:103D60009B872F81DC01CB01820F911DA11DB11D0D
:103D70008C879D87AE87BF878B819C8101969C83B2
:103D80008B8311E0812FDF91CF911F91FF90EF90F6
:103D9000DF90CF900895CF93DF93EC010E94881EAF
:103DA000882339F029899F81921710F45D9801C00A
:103DB0005D9ADF91CF9108950F931F93CF93DF9377
:103DC000809164008E7F8093640080917A0080648B
:103DD00080937A0080917A0086FDFCCFC0917800B4
:103DE000D09179000E946A268E0120E030E098018F
:103DF00011270027600F711F821F931F0E94CE257D
:103E000080916400816080936400DF91CF911F9165
:103E10000F91089560387105D0F440345105B8F41D
:103E2000EAECF6E080E1849FD001A0781124A60F8F
:103E30004770E40FF11D8491AC51BC4F222319F05F
:103E40006C91862B03C080956C9186238C9308958A
:103E50002F923F924F925F926F927F928F929F929A
:103E6000AF92BF92CF92DF92EF92FF920F93CF93D8
:103E7000DF9300D000D000D0CDB7DEB77C015B016E
:103E80004A01622F70E07E836D8381E090E02C0117
:103E9000461A570ACB01919581959109FC01EE0FC5
:103EA000FF1FFC83EB83AB01480D591D202FB5018B
:103EB000C7010E940A1FA4012D813E81421B530BA2
:103EC000202FB501C7010E940A1F6D817E816A0DF6
:103ED0007B1D202FA401C7010E940A1FB5018D81FF
:103EE0009E81681B790B202FA401C7010E940A1F25
:103EF000C12CD12C8D819E81C816D9060CF06CC0C6
:103F000057FC0DC0ED81FE813197FE83ED832B813F
:103F10003C812E5F3F4F3C832B83420E531E3FEF6D
:103F2000C31AD30AC601880F991F0196480E591E5D
:103F300016012A0C3B1C202F6D807E80680C791C9A
:103F4000A301B101C7010E940A1FB5016C197D09C7
:103F50007A836983202FA301C7010E940A1F202FA3
:103F600034018D819E81681A790AA301B101C701CC
:103F70000E940A1F202FA30169817A81C7010E9434
:103F80000A1F3601680C791C202FA3012D803E806A
:103F90002A0C3B1CB101C7010E940A1F202FA3015C
:103FA000F5016D817E81E61BF70BFA83E983BF0182
:103FB000C7010E940A1F34016C187D08202FA3013D
:103FC000B101C7010E940A1F202FA30169817A81D4
:103FD000C7010E940A1F8ECF26960FB6F894DEBF47
:103FE0000FBECDBFDF91CF910F91FF90EF90DF908B
:103FF000CF90BF90AF909F908F907F906F905F9089
:104000004F903F902F9008952F923F924F925F9242
:104010006F927F928F929F92AF92BF92CF92DF92D8
:10402000EF92FF920F931F93CF93DF932C01EB013D
:104030006A0159019801241B350B37FF03C03195E4
:1040400021953109C5018C1B9D0B97FF03C09195EC
:1040500081959109FF24F3948217930714F0F12CB2
:104060000AC09A2D8B2D5801092F182F9C2F8D2FA8
:10407000E601C92ED82EAC16BD0654F49C2D8D2D0C
:104080006801092F182F9C2F8D2FE501A92EB82E1E
:1040900015012C1A3D0A38016C187D0877FE03C003
:1040A000719461947108410137FE03C08FEF881A43
:1040B000980A95948794C016D10614F00FEF01C0AA
:1040C00001E0002E000C110BAC16BD06ACF02E2D3D
:1040D000FF2019F0AE01B60102C0A601BE01C20167
:1040E0000E940A1F8618970897FE04C0C00ED11EB2
:1040F000820C931C2196E8CFDF91CF911F910F91F5
:10410000FF90EF90DF90CF90BF90AF909F908F90F7
:104110007F906F905F904F903F902F900895E4EEC6
:10412000F3E061116FEF00246193619361936193F8
:104130000394D1F7089560E00C948F202F923F9262
:104140004F925F926F927F928F929F92AF92BF92A7
:10415000CF92DF92EF92FF920F931F93CF93DF9353
:10416000CDB7DEB72D970FB6F894DEBF0FBECDBF2B
:10417000ED82E22EF12C9C012E0D3F1D37FD32C148
:10418000803891050CF02EC19B01200F311D37FDA9
:1041900029C1603471050CF025C1DB0177FF04C033
:1041A000AA27BB27A61BB70BA770BB279B0177FFCE
:1041B00002C0295F3F4F13E0359527951A95E1F727
:1041C00077FF08C02150310968E070E0FB01EA1B6D
:1041D000FB0BDF01E02FE695E695E695CE2ED12C80
:1041E000077019F0FFEFCF1ADF0AB9017695762F25
:1041F000662777956795680F791F6C517C4F86010C
:10420000020F131F19870887C12CD12CF8E0AF2E9D
:10421000B12C85010A1B1B0B1F830E830885198592
:104220002017310709F4DEC02830310509F4DAC05F
:104230002F3F1FEF31070CF4CAC08B0100581F4FEE
:104240001D870C874B013B012B011C011C830B8339
:104250001A8309831B861A860A851B850E151F057E
:104260000CF0B5C010E82116310409F4B0C037FCD9
:1042700089C02F3FEFEF3E0709F4B0C00A851B85C8
:104280000C0D1D1DFD81F13079F4F801E40FF51FCF
:10429000E491F0E08F010A2E01C0000F0A94EAF7C2
:1042A000F401B0800B2925C0FD81F11114C0F80183
:1042B000E40FF51FE491F0E00A2E02C0EE0FFF1F9D
:1042C0000A94E2F78F0100951095F301A080B12CBC
:1042D0000A211B210EC0F801E40FF51FE491F0E064
:1042E0008F010A2E01C0000F0A94EAF7F201B08094
:1042F0000B250083109709F445C02730310509F4D8
:1043000041C00A851B850C0D1D1DFD81F13089F40E
:10431000F801E40FF51FE4910E2F10E00E8002C0AB
:10432000159507950A94E2F7E981FA81B0800B2987
:1043300028C0FD81F11115C0F801E40FF51FE491CB
:104340000E2F10E00E8002C0159507950A94E2F733
:1043500000951095EC85FD85A080B12C0A211B21CC
:1043600010C0F801E40FF51FE4910E2F10E00E804D
:1043700002C0159507950A94E2F7EB81FC81B080A5
:104380000B2500830A851B850F5F1F4F1B870A873C
:104390000C851D850F5F1F4F1D870C8709811A81B2
:1043A0000F5F1F4F1A8309830B811C810F5F1F4F03
:1043B0001C830B831FEF211A310AEFEF4E1A5E0A9E
:1043C000FFEF6F1A7F0A0FEF801A900A45CF2F5F19
:1043D0003F4F60587F4FCE0CDF1C20CF109709F065
:1043E00090CFD0CF2D960FB6F894DEBF0FBECDBFC5
:1043F000DF91CF911F910F91FF90EF90DF90CF90C1
:10440000BF90AF909F908F907F906F905F904F90F4
:104410003F902F90089560E084EE93E00C941B246D
:10442000CF93DF931F92CDB7DEB769830E947C24C0
:104430006981982F962381E0961380E00F90DF9199
:10444000CF910895CF93DF93EC018D818E830E94ED
:104450007C248D83DF91CF910895FC019681962372
:1044600021F48581682381E009F480E0089581E0EA
:1044700090E00E94061E81700895EF92FF920F93C4
:104480001F93CF93DF93EC017C0184E0E80EF11CD5
:10449000C7010E943722882381F18AE090E00E94C0
:1044A000061E682F8FEF860F8E3F38F582E390E06F
:1044B0009F8B8E8B88E390E0998F888F0BE010E0C4
:1044C000E881F9810190F081E02DCE010995C801C4
:1044D0000E94061E682F0F5F1F4F0131110581F7E3
:1044E000C7010E940B2288EE93E0DF91CF911F91CC
:1044F0000F91FF90EF900C948424DF91CF911F9146
:104500000F91FF90EF90089504970C943D22CF9364
:10451000DF93EC0180E791E0998388831B821A8204
:10452000CE0104960E94081E8CE591E09983888351
:104530008AE691E09D838C831F8A1E8A198E188ECD
:1045400081E08A8F1B8E8C8F1D8EDF91CF91089515
:104550002F923F924F925F926F927F928F929F9293
:10456000AF92BF92CF92DF92EF92FF920F931F9381
:10457000CF93DF93CDB7DEB727970FB6F894DEBFA2
:104580000FBECDBF603871050CF06EC040345105D0
:104590000CF06AC0FB0135E0C39EE00DF11D112453
:1045A0001E161F060CF060C08C2C912CFA0138E00E
:1045B000C39EE00DF11D11241E161F060CF054C001
:1045C0002C2CEA8209833A0145E0249F80011124C2
:1045D0007F836E830E52194F30E0FC013496FC83CA
:1045E000EB83F8015490353009F4512C530188E0E5
:1045F000382E50FC02C04A8001C0498041100BC0D7
:10460000FA814981F41307C056943A94A80CB91C56
:104610003110EFCF1DC0EE80FF808E2D9E81891B53
:10462000821590F765018C2D8A19821568F4242D66
:10463000A601B7018B819C813D830E940A1F5FEF19
:10464000C51AD50A3D81EFCF8FEFE81AF80AE5CFFA
:104650003F5FEE81FF81E80DF91DFF83EE830F5F61
:104660001F4F363009F0BDCF27960FB6F894DEBF46
:104670000FBECDBFDF91CF911F910F91FF90EF90B3
:10468000DF90CF90BF90AF909F908F907F906F9072
:104690005F904F903F902F900895CF92EF920F939D
:1046A000CF93DF93EC016A3069F42C8D888D998D5E
:1046B00038E0239F800D911D1124998F888F1F8AC8
:1046C0001E8A2EC06D3061F1262F488D598D6E895E
:1046D0007F89CC8CEB8C0A8D0E94A8222C8D422FD6
:1046E00050E08E899F8936E0239F800D911D112413
:1046F0009F8B8E8B2D8D222399F06AEF640390019E
:10470000659F300D112420583F4F2817390744F476
:10471000E881F9810190F081E02D6AE0CE010995F0
:1047200081E090E0DF91CF910F91EF90CF900895CD
:10473000FC01778B668B518F408F0895CF93DF9369
:10474000EC0104960E949B20198E188E1F8A1E8AE7
:10475000DF91CF9108953E9A3F9A81E08093E407DC
:1047600008951092E4073E983F9808958091E407D9
:1047700081110C94B1230C94AB23CF93DF931F9240
:10478000CDB7DEB76091E40782E090E069830E94D4
:104790008F326981681739F082E090E00F90DF91E5
:1047A000CF910C9497320F90DF91CF91089582E0D2
:1047B00090E00E948F3281110C94AB230C94B123B2
:1047C0008091E4070895089585B1806F85B9249894
:1047D00084B1866E84B95E9A5F988AB1806D8AB919
:1047E000769A6E9881B3806F81BB899880B38D7003
:1047F00080BB08955C9A08955C98089580E58CBD0F
:1048000081E08DBD08958EBD00000DB407FEFDCF83
:10481000089583B7817F83BF83B7816083BF889505
:1048200083B78E7F83BF089581E88093640081E021
:10483000809365000895FC0120812EBD61111082D6
:10484000FC0131969C5F2081611110820DB407FE3E
:10485000FDCF2EBD3196E817F907A9F70DB407FE75
:10486000FDCF0895CF93DF93C0E0D4E080E00E94B5
:1048700003242197D9F7DF91CF910895EF92FF920A
:104880001F93CF93DF931F92CDB7DEB7162FEE2481
:10489000EA94F12CB701681B71098AE049830E94F0
:1048A0002127B701611B71098BE00E9421274981F3
:1048B000B701641B710989E00F90DF91CF911F91BF
:1048C000FF90EF900C9421278A3031F4662311F089
:1048D0002E9A08952E9808958B3031F4662311F0A6
:1048E0002F9A08952F980895893029F4662311F09E
:1048F0002D9A08952D9808958FB18095807F669B9D
:1049000088601C9B84600895BC0180E090E00C945A
:104910008F261F93CF93DF9385E090E00E9484243D
:104920005F9A85E090E00E9484245E980E94FC23B8
:10493000C2EDDBE01C2F135FFE0184910E94032473
:1049400021961C13F9CFDF91CF911F910C94FA237C
:1049500081EC80937C000E94E4230E94FE230E944D
:1049600089240C941424CF92DF92EF92FF920F933C
:104970001F93CF93DF936C017A018B01C0E0D0E0ED
:10498000CE15DF0589F0D8016D918D01D601ED912D
:10499000FC910190F081E02DC6010995892B11F45D
:1049A0007E0102C02196ECCFC701DF91CF911F910C
:1049B0000F91FF90EF90DF90CF90089561157105F2
:1049C00079F0FB0101900020E9F73197AF01461B18
:1049D000570BDC01ED91FC910280F381E02D0994ED
:1049E00080E090E00895EF92FF920F931F93CF9392
:1049F000DF938C017B01C0E0D0E0F701EC0FFD1FDD
:104A00006491662361F0D801ED91FC910190F081F1
:104A1000E02DC8010995892B11F02196EECFCE012A
:104A2000DF91CF911F910F91FF90EF9008950C941B
:104A3000DE24DC01ED91FC910190F081E02D0994E0
:104A40004F925F926F927F92EF92FF920F931F931C
:104A5000CF93DF93CDB7DEB7A1970FB6F894DEBF43
:104A60000FBECDBF7C01FA01CB0119A2223008F4A0
:104A70002AE08E010F5D1F4F422E512C612C712CAC
:104A8000BF01A30192010E94862EF901CA010150C3
:104A900011096A3014F4605D01C0695CD8016C933F
:104AA000232B242B252B61F7B801C7010E94DE249C
:104AB000A1960FB6F894DEBF0FBECDBFDF91CF91A8
:104AC0001F910F91FF90EF907F906F905F904F90AC
:104AD0000895CF92DF92EF92FF920F931F93CF939F
:104AE000DF93EC016A017B012115310579F4E8813E
:104AF000F9810190F081E02D642FDF91CF911F911A
:104B00000F91FF90EF90DF90CF9009942A303105FC
:104B1000E9F477FF1AC06DE20E9419258C01442741
:104B20005527BA014C195D096E097F092AE0CE01AB
:104B30000E942025800F911FDF91CF911F910F912F
:104B4000FF90EF90DF90CF9008952AE0B701A60183
:104B5000CE01DF91CF911F910F91FF90EF90DF90E9
:104B6000CF900C9420259A01AB01770F660B770B41
:104B70000C9469252115310541F4DC01ED91FC917E
:104B80000190F081E02D642F09940C9420259A0166
:104B9000462F50E060E070E00C94BA256115710575
:104BA0008105910511F00C9481320895CF93DF9324
:104BB00000D000D0CDB7DEB7611571058105910534
:104BC00079F09B01AC0169833A834B835C830E943B
:104BD0007C3229813A814B815C810E94A82E03C0DE
:104BE00060E070E0CB010F900F900F900F90DF917D
:104BF000CF9108950E948A3208950E94CB260E9488
:104C0000FC258EEE97E00E94912C0E949306C0E056
:104C1000D0E00E94AC062097E1F30E940000F9CF9B
:104C20000C9401310C9496311F920F920FB60F9293
:104C300011242F933F938F939F93AF93BF938091B2
:104C4000E6079091E707A091E807B091E907309156
:104C5000E50723E0230F2D3720F40196A11DB11D98
:104C600005C026E8230F0296A11DB11D2093E5077C
:104C70008093E6079093E707A093E807B093E907CE
:104C80008091EA079091EB07A091EC07B091ED07B6
:104C90000196A11DB11D8093EA079093EB07A093A5
:104CA000EC07B093ED07BF91AF919F918F913F912A
:104CB0002F910F900FBE0F901F9018952FB7F8945B
:104CC0006091E6077091E7078091E8079091E90706
:104CD0002FBF08953FB7F8948091EA079091EB07B2
:104CE000A091EC07B091ED0726B5A89B05C02F3F1A
:104CF00019F00196A11DB11D3FBFBA2FA92F982F02
:104D00008827820F911DA11DB11DBC01CD0142E07C
:104D1000660F771F881F991F4A95D1F708958F92C4
:104D20009F92AF92BF92CF92DF92EF92FF926B0170
:104D30007C010E946A264B015C01C114D104E1048C
:104D4000F10401F10E94AE2C0E946A26DC01CB0125
:104D500088199909AA09BB09883E9340A105B105A4
:104D600060F321E0C21AD108E108F10888EE880E4C
:104D700083E0981EA11CB11CC114D104E104F1040C
:104D800019F7DBCFFF90EF90DF90CF90BF90AF90FF
:104D90009F908F900895789484B5826084BD84B587
:104DA000816084BD85B5826085BD85B5816085BD26
:104DB000EEE6F0E0808181608083E1E8F0E010823F
:104DC000808182608083808181608083E0E8F0E080
:104DD000808181608083E1E9F0E08081826080836E
:104DE000808181608083E0E9F0E080818160808360
:104DF000E1ECF0E080818460808380818260808348
:104E0000808181608083E3ECF0E080818160808339
:104E1000E0ECF0E0808182608083E2ECF0E0808171
:104E200081608083EAE7F0E0808184608083808114
:104E300082608083808181608083808180688083BC
:104E400008951F93CF93DF93182FEB0161E00E9429
:104E5000F627209711F460E004C0CF3FD10539F464
:104E600061E0812FDF91CF911F910C943228E12FC7
:104E7000F0E0E152F44FE4914E2F50E0FA01319707
:104E8000EF30F10508F06CC0EA5AFF4F0C94C72EC2
:104E900084B5806884BDC7BD68C084B5806284BDA8
:104EA000C8BD63C080918000806880938000D093EB
:104EB0008900C093880059C08091800080628093EF
:104EC0008000D0938B00C0938A004FC080918000F7
:104ED000886080938000D0938D00C0938C0045C083
:104EE00080919000806880939000D0939900C09347
:104EF00098003BC080919000806280939000D09396
:104F00009B00C0939A0031C080919000886080938C
:104F10009000D0939D00C0939C0027C08091C0005A
:104F200080688093C0008091C0008F7B8093C00018
:104F3000C093CF001AC08091C00080628093C000EF
:104F4000C093D00012C08091C20088608093C200DC
:104F50008091C2008B7F8093C200C093D20005C0B5
:104F6000C038D1050CF07CCF76CFDF91CF911F9167
:104F7000089590E0FC013197EF30F105B0F5EB5961
:104F8000FF4F0C94C72E809180008F7703C08091D3
:104F900080008F7D80938000089580918000877FBE
:104FA000F9CF84B58F7702C084B58F7D84BD089515
:104FB000809190008F7707C0809190008F7D03C013
:104FC00080919000877F8093900008958091C00029
:104FD0008F7703C08091C0008F7D8093C0000895BB
:104FE0008091C200877F8093C2000895CF93DF93A2
:104FF00090E0FC01E350F44F2491FC01E55EF34F97
:105000008491882361F190E0880F991FFC01E95B8E
:10501000F34FC591D491FC01E75CF34FA591B49196
:10502000611109C09FB7F8948881209582238883F5
:10503000EC912E230BC0623061F49FB7F894388155
:10504000822F809583238883EC912E2B2C939FBFF6
:1050500006C08FB7F894E8812E2B28838FBFDF918D
:10506000CF9108951F93CF93DF93282F30E0F9015C
:10507000E152F44F8491F901E350F44FD491F901D6
:10508000E55EF34FC491CC23C9F0162F81110E9425
:10509000B927EC2FF0E0EE0FFF1FE75CF34FA5916F
:1050A000B4918FB7F894111105C09C91ED2FE09544
:1050B000E92302C0EC91ED2BEC938FBFDF91CF91F0
:1050C0001F910895615030F02091F100FC01208380
:1050D0000196F8CF289884E68093F60708954091CA
:1050E000F1075091F2072091EF073091F007421736
:1050F0005307B4F49091E8009570E1F39091E800C3
:1051000092FD19C08093F1008091F1079091F20710
:1051100001968F739927892B19F48EEF8093E800FD
:105120008091F1079091F20701969093F207809396
:10513000F10781E0089580E00895CF92DF92EF9229
:10514000FF920F931F93CF93DF931F92CDB7DEB7DC
:10515000182F062FE42E862F880F8E5F99830E94CA
:105160006F2883E00E946F28F12EC12E9981D92EDD
:105170008C2D8F19801798F4F601E7FE02C08491F8
:1051800001C080810E946F28182F80E00E946F2844
:105190008123FFEFCF1ADF0A8111EACF01C081E03E
:1051A0000F90DF91CF911F910F91FF90EF90DF90C3
:1051B000CF9008958091D70081608093D70080EAD6
:1051C0008093D80089B5806189BD89B5826089BD29
:1051D00009B400FEFDCF61E070E080E090E00E9445
:1051E0008F268091D8008F7C80618093D800809139
:1051F000E000807F8093E0000895CF93DF931F92BB
:10520000CDB7DEB71982CE0101960E94112D0E9402
:105210003E2EBE016F5F7F4F0E94B92D89810F9096
:10522000DF91CF9108952FB7FC012083F894677028
:105230006093E9000895CF93DF931F92CDB7DEB757
:10524000682FCE0101960E9413298091F200998166
:105250009FBF0F90DF91CF910895EF92FF920F9330
:105260001F93CF93DF931F92CDB7DEB79091F507D1
:10527000992311F057FF03C08FEF9FEF2AC08A01D7
:105280007B01682FCE0101960E9413298091F200C4
:1052900090E0A801801791070CF4AC01842FF7016E
:1052A00094E6815038F028989093F6072091F10009
:1052B0002193F7CF4115510521F08091F200882309
:1052C00021F089818FBFCA0104C08BE68093E8007A
:1052D000F8CF0F90DF91CF911F910F91FF90EF903A
:1052E0000895CF93DF931F92CDB7DEB741E050E032
:1052F000BE016F5F7F4F0E942D29019719F48981AC
:1053000090E002C08FEF9FEF0F90DF91CF91089553
:10531000CF93DF931F92CDB7DEB7682FCE010196F2
:105320000E9413299091E800892F807295FF04C094
:105330009091F20080E4891B99819FBF0F90DF91CB
:10534000CF9108955F926F927F928F929F92AF92CA
:10535000BF92CF92DF92EF92FF920F931F93CF9362
:10536000DF931F92CDB7DEB7582E6B01B42E052FF9
:105370008091F507811103C08FEF9FEF78C0809176
:10538000F30780FF05C08091E00082608093E00019
:10539000EB2CF02EA12C8AEF982E852D8072782E82
:1053A000852D8074682E9AE3892EE114F10409F4A6
:1053B00056C0852D0E948829182F81110AC09A9401
:1053C0009920D1F261E070E080E090E00E948F26A9
:1053D000ECCF90E0E816F9060CF41E2D652DCE01F9
:1053E00001960E9413298091E80085FF35C0212F86
:1053F00030E0E21AF30A772029F01150A8F0109259
:10540000F100FBCFF60157FE07C0115058F0849110
:105410008093F1003196F9CF115020F08191809363
:10542000F100FACFC20ED31EAA2019F08092E80034
:105430000BC08091E80085FD09C08092E800AA2495
:10544000A394E114F10441F0A12C06C0E114F1048D
:1054500019F461108092E80089818FBFA6CFA11056
:10546000A8CF5D9884E68093F7078B2D902F0F903F
:10547000DF91CF911F910F91FF90EF90DF90CF9030
:10548000BF90AF909F908F907F906F905F900895A6
:105490001092E9001092F2071092F1079093F00732
:1054A0008093EF070895DF92EF92FF920F931F937F
:1054B000CF93DF93D82E8A017B01E40EF51EEB011A
:1054C000CE15DF0571F0D7FE03C0FE01849101C047
:1054D00088810E946F2821968111F2CF8FEF9FEF74
:1054E00001C0C801DF91CF911F910F91FF90EF9004
:1054F000DF900895BF92CF92DF92EF92FF920F93C9
:105500001F93CF93DF936C018B01EB019BEFB92EBF
:105510002097C1F07E01C134D1051CF080E4E82E53
:10552000F12C8091E80082FFFCCFC8018C1B9D0B01
:105530006E2D8C0D9D1D0E946228B092E800CE1940
:10554000DF09E6CFC801DF91CF911F910F91FF9046
:10555000EF90DF90CF90BF9008951F920F920FB6FB
:105560000F921124CF92DF92EF92FF920F931F932D
:105570002F933F934F935F936F937F938F939F935B
:10558000AF93BF93EF93FF93CF93DF93CDB7DEB786
:105590006C97DEBFCDBF1092E9008091E80083FFD9
:1055A00016C168E0CE0145960E94622882EF809382
:1055B000E8008D8987FF05C09091E80090FFFCCF3F
:1055C00003C09EEF9093E800982F907609F0E3C017
:1055D0009E892F89188D91110CC0803829F48091F3
:1055E000F4078093F10002C01092F1001092F100D4
:1055F000E7C0422F50E0512B913051F48111E0C0AF
:105600004130510509F0DCC08091F4078D7F0BC05B
:10561000933061F48111D4C04130510509F0D0C0FC
:105620008091F40782608093F407CAC0953041F4FA
:105630008091E80080FFFCCF20682093E300C0C089
:10564000963009F07EC0EB8CFC8C123069F580E05E
:1056500090E00E94482A0E94FD2899E09E012F5F59
:105660003F4F6901F901292F11922A95E9F7998392
:105670001A8391E09E8390EA98879AEF9987209108
:10568000F1073091F207275F3F4F3C832B838D83D7
:10569000C7010E94482A49E050E0B60180E00E941C
:1056A000532A0E94FD288CC0C7010E94482A0E94EC
:1056B0003E2EBE016B5E7F4F0E94E22D009719F0D7
:1056C0000CF07EC081C0113061F1133009F07CC054
:1056D0008F89882349F1823029F440E86CE083E720
:1056E0009CE006C0813039F440E86BE087E69CE03E
:1056F0000E949D2863C0833009F066C00E943E2E40
:105700008E010F5F1F4FB8010E94012EF80101901A
:105710000020E9F73197BF01601B710B40E0C80121
:10572000E7CF65E57CE002C060E87CE061157105CB
:1057300009F44AC0FB01449150E080E80E94532ADA
:105740003FC0973009F440C0983021F481E0809345
:10575000F10036C09930A1F58370B1F5EBE0F1E0CE
:1057600081E021E036E39081992361F08093E900A4
:105770002093EB0091919093EC003093ED008F5FBC
:10578000873089F78EE78093EA001092EA008F89CC
:105790008093F50715C08B8D9C8D0E94482A898DBA
:1057A000811105C0CE0145960E941C2D07C00E94A4
:1057B0003E2EBE016B5E7F4F0E94202E882321F07B
:1057C0008EEF8093E80003C081E28093EB006C963B
:1057D0000FB6F894DEBF0FBECDBFDF91CF91FF9122
:1057E000EF91BF91AF919F918F917F916F915F9159
:1057F0004F913F912F911F910F91FF90EF90DF906C
:10580000CF900F900FBE0F901F9018958093E900D6
:105810008091F200882319F08AE38093E8000895CC
:105820001F920F920FB60F9211242F933F934F9315
:105830005F936F937F938F939F93AF93BF93CF9318
:10584000EF93FF93C091E1008091E100837F80930B
:10585000E100C3FF0FC01092E90081E08093EB00EC
:105860001092EC0082E38093ED001092F50788E03F
:105870008093F000C2FF19C083E00E94062C809143
:10588000F707882339F08091F70781508093F70755
:10589000882389F18091F607882339F08091F607F3
:1058A00081508093F607882341F1C4FF10C0809196
:1058B000E2008E7E81608093E2008091E1008F7E25
:1058C0008093E1008091F3078E7E806111C0C0FF5C
:1058D00016C08091E2008E7E80618093E20080910C
:1058E000E1008E7E8093E1008091F3078E7E8160DF
:1058F0008093F30704C05D9ACDCF289AD6CFFF914D
:10590000EF91CF91BF91AF919F918F917F916F91C7
:105910005F914F913F912F910F900FBE0F901F906D
:1059200018951092F5071092F4071092F3070E9451
:10593000DA288091E1008E7E8093E1008DE08093F3
:10594000E200559A209AEEEFFFE7859194918B3F04
:105950009C4D19F481E08093480808950895CF93F1
:10596000DF931F92CDB7DEB76983DC01ED91FC9127
:105970000280F381E02D41E050E0BE016F5F7F4F78
:1059800009950F90DF91CF910895CF93DF93EC01AC
:105990008C859D8597FF05C082E00E9471299D87B7
:1059A0008C878C859D85DF91CF91089583E00E943F
:1059B000882990E0089583E00C94062CFC018485EE
:1059C000958597FD06C082E00E941B2990E0019614
:1059D000089582E00E941B2990E00895FC018485CF
:1059E000958597FD05C02FEF3FEF358724870895F4
:1059F00082E00C947129CF93DF93EC0180911C011C
:105A0000882331F083E00E94A2291816190634F089
:105A100081E090E09B838A8380E090E0DF91CF91EA
:105A20000895FC0190819E5F908342E450E064E819
:105A30007CE080E80C94532AFC0181819081913AAA
:105A400059F4813209F048C047E050E065E171E067
:105A500080E00E94532A76C09132F1F5833291F4AE
:105A60009381892F90E0982F88272281822BA0E0B4
:105A7000B0E08093110190931201A0931301B093B1
:105A8000140160C0803239F467E070E085E191E094
:105A90000E947A2A06C0823209F054C08281809323
:105AA0001C0180914808882319F0EEEFFAE002C04B
:105AB000E0E0F8E08091150190911601A0911701A6
:105AC000B0911801803B9440A105B10539F4809153
:105AD0001C0180FF1FC002C080E008950FB6F8943B
