:100000000C947A080C94A2080C94A2080C94A208F0
:100010000C94A2080C94A2080C94A2080C94A208B8
:100020000C94A2080C94A2080C9404180C94761852
:100030000C94A2080C94A2080C94A2080C94A20898
:100040000C94A2080C94A2080C94A2080C94A20888
:100050000C94A2080C94A2080C94A2080C94000B17
:100060000C94A2080C94A2080C94A2080C94A20868
:100070000C94A2080C94A2080C94A2080C94A20858
:100080000C9448100C94A2080C94A2080C94A2089A
:100090000C94A2080C94A2080C94A2080C94A20838
:1000A0000C94A2080C94A2080C94A208FA08FD086B
:1000B000EC08F008F4081E091E091E0901090509CB
:1000C00009090F0913091E091909310A360A3B0AE1
:1000D000450A4F0A990A990A990A590A630A6D0A48
:1000E000770A840A990A8C0A05A84CCDB2D44EB975
:1000F0003836A9020C50B9918688083CA6AAAA2ACB
:10010000BE000000803FD5F08D14A1C881CFD9F189
:10011000AF20002E202D2D2D202020202D2D2D2D07
:100120002D2D2D2D2D2D004849474853434F524525
:1001300000304C42E1910F0F91E3447C3000060502
:10014000050205050305050600000000E0808000AB
:1001500000E020200000F090900000C080808080AF
:10016000C040404040F880000000F808000000F85F
:1001700020000000F000000000E040400000020706
:10018000020707070705070500054C4556454C00C3
:1001900047414C415859210054484500594F55207A
:1001A0005341564544004C4556454C004E45585425
:1001B00000434F4E47524154532100F0FC0E0E06AF
:1001C000040010306080C04000C0F0F0F8387C2C93
:1001D00026C6463CC00000000000000000000003EE
:1001E0000F3C70400000C0FFF80000E2CC119F3FC0
:1001F0007F7060410B8A83DCE3E0000000000000B8
:10020000000000000000000000004FFFFFE08081C0
:10021000F7FCF9F6F10227DFBFFFFFFFFFFF000049
:10022000000000000000000000000000000000AF1F
:10023000FFDF3FBFFFFFFFFFFFFFFCF3FFDEFDFF20
:10024000FFEFFEC000000000000000000000000002
:1002500000000087F8638EDDF97FFFFFF7DFFFFF07
:10026000FBFFFFFFF7FFBFFFF3DC9820000000005B
:10027000000000000000000003000103010C110158
:1002800001070F1F170F1B1F1F0F060F0100010093
:10029000020200000000000000000000000000005A
:1002A000000000000000000000000000000000004E
:1002B000000000F8FCE6C3F1E101010101020204C3
:1002C000F800000000000000000000000000000036
:1002D00000C0E0B0101E0E1F1F3F7FCF1F3F3B3BF3
:1002E000012C231FFF1020408000000000000000B0
:1002F00000000000000767FFFFFE84CCDEFEFF3F2A
:100300005CDCDCCCCCEC741C8FCFF6E7F9FCFE7E19
:10031000FEFCD060C000000000000001071C3FFF91
:10032000E7E3C7C74787878F8F8F8CF8C9FF770FA1
:100330000F0F0E0F0F0F0706030040606070707004
:1003400070707C7F7773717070707070707171777E
:100350007E737E707030303020202020000000003E
:10036000000000000000000000000000000000008D
:10037000000000000000000000000000000000007D
:100380000080C060301008088C8EFEFEFAF2FEFE7F
:10039000CE8C0808183060E0C0800000000000002B
:1003A000700040FCFEFFFF7E3E1E0F87436363F339
:1003B000F3F3F363676747CF8E9E3E7FFFFFFFFE39
:1003C000F8F080000022553F7F0701C0F8FE9FCE65
:1003D000EE0F0F5FFFFFFFCFEFEF0E0E5F3FFFF857
:1003E000C1077FFFFFFF1F8078010815000000FF95
:1003F000FFFFFF7F7F7C78787F7F7F7F7F7F7878AC
:100400007CFFFFFFFF00002A5787F8FFFEFFFFFF7A
:10041000FAD8C00001070F0F1E3C387175777F7F37
:100420007571381C1E0F87D3D8FAFEFEFCF9030F36
:1004300003070F0F0301080000000C0C0E0E0C0C3C
:1004400008000E06020B090C0C00010103070F0740
:100450000301000000000000000000000000000098
:1004600000000000000000000000E0B048B4FEFE04
:10047000FFFFFFFFFFFEFCFCF8F0C00000000000E3
:100480000000000000000000000000000000078ADB
:10049000C18A9FBF3F7FFF7FBFD79F9F9F1F8F78DE
:1004A000000000000000000000000000000000004C
:1004B000000000700DFC6521909FBF943D7DFD8D77
:1004C000FE3F01000000000000000000000000806E
:1004D00040C02000000000002AD3000383C0C0C336
:1004E00003C2C3FE71000000081830F0E0C0000035
:1004F00000000001030A156AFCE080000000000310
:100500000063C3C383030100000000C0F0FC5F0F61
:1005100007030100000000000000000000020103CA
:1005200000000000000001010100000000000003C5
:1005300003000000000000000000000000000000B8
:1005400000000000E0F0FCE2017E7E01E2FCF0E051
:100550000000000000000000000000000000034751
:10056000AF2B9F5F599D2FAB470300000000000099
:10057000000000000000000000000001000000007A
:100580000100000000000000000000F0905010107A
:10059000101010101010101010101010101010B0BB
:1005A0005090D0F0F0FFB44B0000000000000000BD
:1005B000000000000000000000B44BB6FFFFFF0089
:1005C0001F050301010101010101010101010101F7
:1005D0000101051B051B1F1F00000000000000009B
:1005E000000000000000000000000000000000000B
:1005F0000080C06020B65F7F5EBC58B858B070E025
:10060000C0800000000000000000000000000000AA
:10061000000000007EF3B030EACA0ACA3AB0B0B0B7
:10062000B0210CFAFCFF7E800000000000000000FA
:1006300000000000000000103E73C1F3FFD05050D6
:100640005B599101A000B05F3F1F0C030000000048
:10065000000030507060E0C8C8C888988C8C1D9F1E
:10066000FFAB5DFB899CA8F68E46B11AF2E044C44C
:100670000488088820100000F8FFF785220513CEB3
:10068000FD020506060E3384112222840483802095
:10069000D81F030205FEF7A0861800000707010512
:1006A000030302070703040000000001000000002C
:1006B000010100060100000000070704000000001F
:1006C00000000000000000000000F030202020E0CA
:1006D000E0E0E0C0C0E0E0E0A0A0202020404040FA
:1006E0008080000000000000000000203078FC1F27
:1006F000068301000000011F0F070707070F0F1FE8
:100700007EFEFCF080000909F2BC302000000000F1
:1007100000003F7CFE1FFC50DC66474767D7D75779
:100720005E1EFCFCFCDF1FFFFFE0F8FCFFFF7F7C90
:10073000F0E040000000000040E0FFE0C181A0A028
:10074000A08181C1C0E0F0FEFEFCFEFFFFFFFFFFC5
:100750000F0F0F0C0000000000000000008070DC94
:10076000FEFFFFFFBF3F0F070FFFFFFF3B1B0B0706
:100770000FDFF30303000000000000000000000092
:100780000003000303030301000000000303030050
:100790000000000000000300000000000000000056
:1007A000000000000080C0E0F0F8FCFCFCFCFCFC59
:1007B000FCFCF8F8E0C000000000000000000000B1
:1007C000000000000000000080C3C161303838F82C
:1007D000F8F0E0E0C0E13918FFFFF400000000008D
:1007E0000000000000000000000000383911020382
:1007F000079F0E3EFD7F7F7F7F3F7F3D3F1F3E7CFB
:1008000010000000000000000000000000000001D7
:10081000800000000000C1C1E0E0F0F0F0F8F8F85E
:10082000FAF77F1E0C0CF8F0F8F0F0E0C0000000C2
:10083000000000706E7A7E7F7F7F7F7F7F7F7F7F6B
:100840007F7F7F7F7F0100000000011F7F7F3F3F90
:100850003F3F7800000000000000000000000000A2
:100860000000000000000000000000000000000088
:1008700000005041555345440000F8F8F8F8F8F8E6
:10088000F8F0C000C0C0C0C0C0C0C0C08000000040
:10089000C0C0C0C0C0C0800000C0C0C0C0C0C08058
:1008A000000080C0C0C0C0C0C0C080000000000008
:1008B00000000000000000F0F8F8F8F8F8F8F8F888
:1008C000F00000C0C0C0000000C0C0C0000080C078
:1008D000C0C0C0C0C08000C0C0C080C0C0C00000D8
:1008E000C0FFFCF800000000FFFFFFC0C0C0C0C098
:1008F0000000020E3EFEFCF0C0800000F7F7F70794
:100900000707FFFFFF00C0E7F7E78707E7F7F700F4
:10091000E7F7F707070707070600FFFFFF0777F767
:10092000F7F7E7000000000000000000000000FEF4
:10093000FEFE00000000FEFEFE0000FFFFFF0000C4
:1009400000FFFFFF00E4F7F7E70707F7F7E700FF0F
:10095000FFFF07070707070407FFFFFF0007040063
:10096000F7F7E707070FFFFFFF0878F8F8F8FBFF36
:10097000FFFFFE00FFFFFFF8F8F8FFFFFF007FFF1B
:10098000FFFBFBF8FFFFFF007FFFFFF8F8F8F8F828
:100990001800FFFFFFF8F8FBFBFB19000000000048
:1009A000000000000000007FFFFFF8F8F8F8FFFFEC
:1009B000FF0000FFFFFFF8F8F8FFFFFF00FFFFFF59
:1009C000FBFBF8FFFFFF00FFFFFF0000000000003F
:1009D00000FFFFFF00000000FFFFFF000000FFFF1F
:1009E000FF00000000000000000000007F7F7F008B
:1009F00000000000000000000000000000000000F7
:100A000000000000000000000000000000000000E6
:100A100000000000000000000000000000000000D6
:100A200000000000000107070704000000000000AC
:100A300000000000000000000000000000000000B6
:100A400000000000000000000000000000000000A6
:100A50000000000000000000000000000000000096
:100A60000000000000000000000000000000000086
:100A70000000000000000000000000000000000076
:100A80000000000000000000000000000000000066
:100A90000000000000000000000000000000000056
:100AA0000000000000000000000000000000000046
:100AB00000000056312E31004C4556454C3A20007E
:100AC00048415244004E4F524D414C00454153590C
:100AD000004D4F4445203A0053415645203A204F9F
:100AE00046460053415645203A204F4E00534F553D
:100AF0004E443A204F464600534F554E443A204FFD
:100B00004E00010204081020408000000000003E5A
:100B10005B4F5B3E3E6B4F6B3E1C3E7C3E1C183C6D
:100B20007E3C181C577D571C1C5E7F5E1C00183CC9
:100B30001800FFE7C3E7FF0018241800FFE7DBE712
:100B4000FF30483A060E2629792926407F050507F9
:100B5000407F05253F5A3CE73C5A7F3E1C1C080855
:100B60001C1C3E7F14227F22145F5F005F5F06091A
:100B70007F017F006689956A606060606094A2FF73
:100B8000A29408047E040810207E201008082A1C65
:100B900008081C2A08081E101010100C1E0C1E0C31
:100BA00030383E3830060E3E0E06000000000000D1
:100BB000005F00000007000700147F147F14242A40
:100BC0007F2A122313086462364956205000080712
:100BD0000300001C2241000041221C002A1C7F1C33
:100BE0002A08083E08080080703000080808080835
:100BF000000060600020100804023E5149453E009C
:100C0000427F400072494949462141494D331814F9
:100C1000127F1027454545393C4A49493141211148
:100C200009073649494936464949291E000014003A
:100C3000000040340000000814224114141414145D
:100C4000004122140802015909063E415D594E7CBB
:100C50001211127C7F494949363E414141227F4170
:100C600041413E7F494949417F090909013E4141CE
:100C700051737F0808087F00417F41002040413FB9
:100C8000017F081422417F404040407F021C027FC8
:100C90007F0408107F3E4141413E7F090909063E1D
:100CA0004151215E7F0919294626494949320301EC
:100CB0007F01033F4040403F1F2040201F3F4038FE
:100CC000403F631408146303047804036159494DD9
:100CD00043007F4141410204081020004141417F0F
:100CE0000402010204404040404000030708002085
:100CF000545478407F284444383844444428384485
:100D000044287F385454541800087E090218A4A4BB
:100D10009C787F0804047800447D40002040403DDA
:100D2000007F1028440000417F40007C0478047854
:100D30007C080404783844444438FC1824241818E7
:100D4000242418FC7C080404084854545424040443
:100D50003F44243C4040207C1C2040201C3C403030
:100D6000403C44281028444C9090907C4464544C5F
:100D700044000836410000007700000041360800BA
:100D800002010204023C2623263C1EA1A161123A64
:100D90004040207A385454555921555579412154B1
:100DA000547841215554784020545579400C1E52B6
:100DB000721239555555593954545459395554545A
:100DC000580000457C410002457D420001457C40C1
:100DD000F0292429F0F0282528F07C5455450020DE
:100DE00054547C547C0A097F49324949493232487B
:100DF000484832324A4848303A4141217A3A4240E2
:100E00002078009DA0A07D39444444393D404040B5
:100E10003D3C24FF2424487E4943662B2FFC2F2B86
:100E2000FF0929F620C0887E090320545479410027
:100E300000447D413048484A32384040227A007AA6
:100E40000A0A727D0D19317D2629292F2826292984
:100E5000292630484D4020380808080808080808A6
:100E6000382F10C8ACBA2F102834FA00007B0000CD
:100E700008142A142222142A14089500220095AA84
:100E8000005500AAAA55AA55AA000000FF0010109C
:100E900010FF00141414FF001010FF00FF1010F0DA
:100EA00010F0141414FC001414F700FF0000FF00ED
:100EB000FF1414F404FC141417101F10101F101F3B
:100EC0001414141F00101010F0000000001F101068
:100ED00010101F10101010F010000000FF10101064
:100EE000101010101010FF10000000FF140000FF81
:100EF00000FF00001F10170000FC04F4141417106A
:100F0000171414F404F40000FF00F714141414145C
:100F10001414F700F7141414171410101F101F14D2
:100F20001414F4141010F010F000001F101F000033
:100F3000001F14000000FC140000F010F01010FF5F
:100F400010FF141414FF141010101F00000000F004
:100F500010FFFFFFFFFFF0F0F0F0F0FFFFFF0000D9
:100F6000000000FFFF0F0F0F0F0F38444438447C80
:100F70002A2A3E147E02020606027E027E02635583
:100F80004941633844443C04407E201E2006027ED2
:100F9000020299A5E7A5991C2A492A1C4C720172E4
:100FA0004C304A4D4D303048784830BC625A463D4E
:100FB0003E494949007E0101017E2A2A2A2A2A4403
:100FC000445F444440514A444040444A5140000038
:100FD000FF0103E080FF000008086B6B0836123643
:100FE0002436060F090F0600001818000000101024
:100FF000003040FF0101001F01011E00191D1712E2
:10100000003C3C3C3C0000000000000000002400CC
:1010100027002A002D0030000000000025002800D5
:101020002B002E0031000404040404030405020212
:101030000202040302020202060606060606040471
:101040000202020404040802011040804010204003
:1010500080408008020401804020100201108010AE
:10106000204040200000000200090F00000304019E
:10107000000C000000000000000000000000000064
:10108000000000080B000202020100090400000138
:1010900002020000052400100105240101010424BE
:1010A000020605240600010705810310004009041B
:1010B0000100020A000000070502024000000705C7
:1010C00083024000000403090412010002EF020140
:1010D00040412336800001010203014172647569B9
:1010E0006E6F204C4C430041726475626F79000052
:1010F000192BC32A11241FBECFEFDAE0DEBFCDBF0C
:1011000011E0A0E0B1E0E6E7F2E602C005900D9242
:10111000A837B107D9F728E0A8E7B1E001C01D92D0
:10112000A734B207E1F718E0C9E7D8E004C0219777
:10113000FE010E94F62FC837D107C9F70E94E11AB5
:101140000C942E310C940000CF92DF92EF92FF921C
:101150000F931F93CF93DF936C017A018B01C0E053
:10116000D0E0CE15DF0589F0D8016D918D01D60153
:10117000ED91FC910190F081E02DC6010995892B3C
:1011800011F47E0102C02196ECCFC701DF91CF910F
:101190001F910F91FF90EF90DF90CF900895362F21
:1011A00090E0FC01EC59FF4E4491FC01EB5BFF4EDB
:1011B0002491FC01EA5DFF4E8491882309F451C01B
:1011C0004423E1F150E0FA013197EF30F105B0F539
:1011D000EA5AFF4F0C94F62F909180009F7707C03A
:1011E000909180009F7D03C090918000977F9093A5
:1011F000800024C094B59F7702C094B59F7D94BDB4
:101200001DC0909190009F7707C0909190009F7DA6
:1012100003C090919000977F909390000FC09091A1
:10122000C0009F7703C09091C0009F7D9093C00045
:1012300005C09091C200977F9093C200E82FF0E024
:10124000EE0FFF1FE85EFF4EA591B4918FB7F894A3
:10125000EC91311103C020952E2301C02E2B2C932D
:101260008FBF08958091800108950895089580E0CA
:1012700090E008950E9429310C9491300C949130A3
:101280000C9491300C9491300C949130CF93DF9367
:1012900000D000D0CDB7DEB761157105810591058D
:1012A00079F09B01AC0169833A834B835C830E9494
:1012B000212D29813A814B815C810E94452D03C0FB
:1012C00060E070E0CB010F900F900F900F90DF91D6
:1012D000CF910895DC01ED91FC910190F081E02D1A
:1012E0000994EF92FF920F931F93CF93DF938C019A
:1012F0007B01C0E0D0E0F701EC0FFD1F6491662395
:1013000061F0D801ED91FC910190F081E02DC801D0
:101310000995892B11F02196EECFCE01DF91CF9167
:101320001F910F91FF90EF9008956115710579F06D
:10133000FB0101900020E9F73197AF01461B570BE5
:10134000DC01ED91FC910280F381E02D099480E0B5
:1013500090E008954F925F926F927F92EF92FF928A
:101360000F931F93CF93DF93CDB7DEB7A1970FB63F
:10137000F894DEBF0FBECDBF7C01FA01CB0119A2EC
:10138000223008F42AE08E010F5D1F4F422E512CAF
:10139000612C712CBF01A30192010E94772DF901EC
:1013A000CA01015011096A3014F4605D01C0695C22
:1013B000D8016C93232B242B252B61F7B801C7018F
:1013C0000E949509A1960FB6F894DEBF0FBECDBF5F
:1013D000DF91CF911F910F91FF90EF907F906F90D1
:1013E0005F904F900895CF93DF93DB01482F50E03B
:1013F000FA01EB5BFF4E9491FA01EA5DFF4E2491F6
:10140000222399F030E0220F331FF901E65FFF4EEF
:10141000C591D491F901E85EFF4E259134912FB723
:10142000F894E881E92BE8832FBF109711F460E06E
:1014300004C0AF3FB10529F461E0DF91CF910C9476
:10144000CF08FA01EC59FF4EE4914E2F50E0FA011B
:101450003197EF30F10508F06CC0EB59FF4F0C9459
:10146000F62F84B5806884BDA7BD68C084B580624E
:1014700084BDA8BD63C08091800080688093800097
:10148000B0938900A093880059C080918000806249
:1014900080938000B0938B00A0938A004FC080910E
:1014A0008000886080938000B0938D00A0938C00B2
:1014B00045C080919000806880939000B09399001F
:1014C000A09398003BC08091900080628093900030
:1014D000B0939B00A0939A0031C0809190008860E7
:1014E00080939000B0939D00A0939C0027C08091B2
:1014F000C00080688093C0008091C0008F7B809383
:10150000C000A093CF001AC08091C0008062809379
:10151000C000A093D00012C08091C2008860809368
:10152000C2008091C2008B7F8093C200A093D20042
:1015300005C0A038B1050CF07FCF79CFDF91CF91F6
:1015400008953FB7F89480918A0190918B01A09102
:101550008C01B0918D0126B5A89B05C02F3F19F0D5
:101560000196A11DB11D3FBFBA2FA92F982F882723
:10157000820F911DA11DB11DBC01CD0142E0660F7E
:10158000771F881F991F4A95D1F708958F929F92D0
:10159000AF92BF92CF92DF92EF92FF926B017C01EC
:1015A0000E94A10A4B015C01C114D104E104F104C1
:1015B000F1F00E94A10ADC01CB0188199909AA095E
:1015C000BB09883E9340A105B10570F321E0C21A22
:1015D000D108E108F10888EE880E83E0981EA11C6E
:1015E000B11CC114D104E104F10419F7DDCFFF905F
:1015F000EF90DF90CF90BF90AF909F908F90089525
:101600001F920F920FB60F9211242F933F938F9337
:101610009F93AF93BF938091780190917901A091AE
:101620007A01B0917B013091890123E0230F2D379E
:1016300020F40196A11DB11D05C026E8230F0296D6
:10164000A11DB11D209389018093780190937901A8
:10165000A0937A01B0937B0180918A0190918B01D4
:10166000A0918C01B0918D010196A11DB11D8093B7
:101670008A0190938B01A0938C01B0938D01BF914F
:10168000AF919F918F913F912F910F900FBE0F902F
:101690001F901895BC0180E090E00C94C60A8FB1B1
:1016A0002CB193B130E02095309520743327A901F7
:1016B00023E0559547952A95E1F7292F30E02095AD
:1016C0003095207133273595279535952795242B0F
:1016D0008095807F822B0895109280013E983F98DC
:1016E00008953E9A3F9A81E0809380010895DC013D
:1016F00090E0E0E9F1E091119FEF00249193919344
:10170000919391930394D1F759961C921E925897F6
:1017100057961C921E9256970895FC019681962327
:1017200021F48581682381E009F480E00895603820
:101730007105D0F440345105B8F4E2E0FBE080E1FB
:10174000849FD001A0781124A60F4770E40FF11DEB
:101750008491A057BE4F222319F06C91862B03C0B1
:1017600080956C9186238C9308952F923F924F928F
:101770005F926F927F928F929F92AF92BF92CF9221
:10178000DF92EF92FF920F931F93CF93DF93CDB72A
:10179000DEB729970FB6F894DEBF0FBECDBFFC01B0
:1017A0006A3069F4248D808D918D38E0239F800DFF
:1017B000911D1124918F808F178A168AAAC06D30CF
:1017C00009F4A7C099878887F48C338C228C608CAD
:1017D000718C0689178900381105C4F0A885B98570
:1017E0005C962C915C97422F50E056968D919C917F
:1017F0005797B6E02B9F800D911D1124E885F98540
:10180000978B868B258D21116EC083C0F0E46F16F7
:10181000710424F7C80125E0F29E800D911D11246A
:1018200018161906DCF68F2D90E09C838B83C3017C
:10183000A8E0FA9E800D911D11241816190674F661
:10184000B5E06B9FB0011124FB01E65FF44FFA8312
:10185000E98330E08885998504969E838D83E981AC
:10186000FA81E490353009F4E12C430188E0482EF8
:10187000E0FC02C0532C01C0522C51100BC032109E
:1018800009C0E6944A948B819C81880E991E411070
:10189000EFCF1BC068018C2D801B8F1590F7540172
:1018A0008A2D88198F1568F4252DA501B6018D8123
:1018B0009E813F830E94970B9FEFA91AB90A3F812F
:1018C000EFCFAFEFCA1ADA0AE6CF3F5FEB81FC81B8
:1018D0000E0F1F1F89819A8101969A838983363062
:1018E00009F0BDCF7BCF6AEF64039001659F300D97
:1018F000112420583F4F281739075CF4A885B98573
:10190000ED91FC9111970190F081E02D6AE0CD01FD
:10191000099581E090E029960FB6F894DEBF0FBEDE
:10192000CDBFDF91CF911F910F91FF90EF90DF908E
:10193000CF90BF90AF909F908F907F906F905F906F
:101940004F903F902F9008950895BF92CF92DF92CD
:10195000EF92FF920F931F93CF93DF93EC01B62E7C
:101960008C01045F1F4F7C0182E0E80EF11C6E01C8
:10197000E6E1CE0ED11CF801408150E0F701608114
:1019800070E08DA19EA121E004960E94970BB110FA
:1019900004C0F8018285833018F18CA1813071F484
:1019A000F801408150E04F5F5F4FF701608170E0C8
:1019B0008DA19EA121E004960E94970B8CA18430FA
:1019C00079F4F801408150E0F701808190E0BC019A
:1019D0006F5F7F4F8DA19EA121E004960E94970B1F
:1019E0000F5F1F4FFFEFEF1AFF0A0C151D0519F6C9
:1019F000DF91CF911F910F91FF90EF90DF90CF90EB
:101A0000BF9008954F925F926F927F929F92AF9294
:101A1000BF92CF92DF92EF92FF920F931F93CF93DB
:101A2000DF93EC016C018CE0C80ED11C7E01E2E07A
:101A3000EE0EF11C8E010A5E1F4F5E01F0E2AF0E4A
:101A4000B11C83E0482E512C612C712C8CA181306B
:101A500029F5F8019081F6018081890F808390E05B
:101A60004AA12BA130E0240F311D28173907B4F407
:101A700098A069A170E080E090E00E944609690D9D
:101A8000F70160838AA1F60180830E94212DA301C2
:101A900092010E94452D6F5FF80160838CA1843014
:101AA00011F5F70180818230C8F49AA06BA170E033
:101AB00080E090E00E944609690DF601608399A1DB
:101AC00088A1890FF70180830E94212DA301920133
:101AD0000E94452D6F5FF801608305C0F801908179
:101AE000891BF7018083FFEFCF1ADF0A8FEFE81A17
:101AF000F80A0F5F1F4F0A151B0509F0A7CFDF91EA
:101B0000CF911F910F91FF90EF90DF90CF90BF90FA
:101B1000AF909F907F906F905F904F900895089541
:101B2000089508950895F9018130D9F498E29083D9
:101B300094E191839AE0938326E0228325E0248335
:101B400024E026838583653008F487C08FE0838393
:101B500083E28083693008F480C0928383E08683C7
:101B60007CC08230A1F483E2808388E081838FE0AF
:101B700083838AE0828385E0848384E0868381E0B6
:101B80008583693008F469C08CE0828366C0833045
:101B900061F49BE0908398E091838383928386E055
:101BA000848381E0868382E057C0843049F482E3F5
:101BB00080838EE1818383838CE0828386E048C0CA
:101BC000853061F489E0808398E0918383E08383AA
:101BD000928396E09483868384E03EC08630C1F48D
:101BE000962F990F960F9195935D90839EE1918327
:101BF00093839EE092839CE09483868391E0958317
:101C000060FF2BC0808382E0838383E1848325C0CF
:101C1000873071F483E2861B80838EE18183838326
:101C20008DE082838AE0861B84836F5F668313C0A6
:101C3000883098F0862F880F860F8195865D808387
:101C40008EE18183838380E1861B828384E1861B0E
:101C500084838AE0868381E08583413019F4808122
:101C6000815004C0423019F48081825080830895ED
:101C7000FC01808191810C942F2DEF92FF920F93A4
:101C80001F93CF93DF9300D0CDB7DEB78C0185E1F2
:101C900092E09A838983CE0101960E94380E7801E2
:101CA00095E3E91A9EEFF90AF701808386E192E055
:101CB0009A838983CE0101960E94380EF801E4537D
:101CC000FE4F808381E0F701208131812430394D3E
:101CD00009F080E00F900F90DF91CF911F910F914D
:101CE000FF90EF9008950F931F93CF93DF9300D051
:101CF000CDB7DEB78C0180E00E94201180E090E03B
:101D0000A0E0B3E4F80182879387A487B58780E0D9
:101D100090E0A0E8BFE386879787A08BB18B128203
:101D20001382128A83E0838B82E290E09A83898314
:101D3000CE0101960E94380E823319F484E0F80136
:101D4000838B8FEFF80185830F900F90DF91CF91F8
:101D50001F910F9108950F931F93CF93DF931F92BD
:101D6000CDB7DEB78C0169830E94380E6981681790
:101D700029F0F801808191810E94372DC8010F90D0
:101D8000DF91CF911F910F910895CF92DF92EF9243
:101D9000FF920F931F93CF93DF9300D000D000D01A
:101DA000CDB7DEB77C0185E492ECA7E3BFE0898381
:101DB0009A83AB83BC83CE0101966C0100E110E0F5
:101DC000F60161916F011E830D83CE0105960E947D
:101DD000AB0E0F5F1F4F0431110591F7F3E0EF0ECB
:101DE000F11C04E210E0F70161917F011E830D8375
:101DF000CE0105960E94AB0E0F5F1F4F0E341105EA
:101E000091F726960FB6F894DEBF0FBECDBFDF91D7
:101E1000CF911F910F91FF90EF90DF90CF90089599
:101E2000CF92DF92EF92FF920F931F93CF93DF93A6
:101E300000D0CDB7DEB78C01C62ED42E83E290E061
:101E40009A838983CE0101960E94380E9801265FFD
:101E50003F4F7901811105C0F701C80183539E4F9F
:101E600009C0C8010E943D0E8823B1F384E5C82E45
:101E7000D12C25C01192E817F907E1F781E0D801CC
:101E80005A968C935A9788E01F968C93F801E253E8
:101E9000FE4F10823797C0823396D08281E290E065
:101EA0009A8389836D2DCE0101960E94AB0E84E04A
:101EB00099EDF801E553FE4F9183808316C0DA82D5
:101EC000C982CE0101960E94380EF70181937F01ED
:101ED000FFEFCF1ADF0A27E1C21622E0D20679F718
:101EE00081E0F801E253FE4F8083D8011496ED9112
:101EF000FC911597158214821682F801E353FE4F68
:101F000010821496ED91FC911597A054BE4F9C91B0
:101F10008AEE891B8483980120533E4FC801865363
:101F20009E4F189609531E4FFC0140816C91D801B9
:101F30008C910E94930D0F900F90DF91CF911F9184
:101F40000F91FF90EF90DF90CF900895CF92DF92A6
:101F5000EF92FF920F931F93CF93DF93E0917E0157
:101F6000F0917F01CF01029690937F0180937E01D3
:101F7000C081D181C11580E8D80759F480917100E2
:101F80008D7F80937100109291004698109283018A
:101F900076C081E080938301C13080E8D80761F486
:101FA000E0917C01F0917D01CF01029690937F0139
:101FB00080937E01C081D181DF77209769F481E031
:101FC0008093840146983FE9C32E3FE0D32EE12C55
:101FD000F12CCAEFD0E014C08E0120E030E060E4C4
:101FE00072E48FE090E0A90198010E94452D6901FB
:101FF0007A0181E0C81AD108E108F1081092840141
:10200000E0919E05F0919F050995811103C081E043
:1020100080938401E0917E01F0917F01CF010296CF
:1020200090937F0180937E012081318121153105BC
:1020300069F0DE010E94992DDC01CB0129E0B59504
:10204000A795979587952A95D1F703C08FEF9FEFB6
:10205000DC01109290002AE020939100D092990028
:10206000C09298008093850190938601A093870188
:10207000B093880180917100826080937100DF913C
:10208000CF911F910F91FF90EF90DF90CF90089527
:102090001F920F920FB60F9211242F933F934F93DD
:1020A0005F936F937F938F939F93AF93BF93EF93C0
:1020B000FF938091850190918601A0918701B09155
:1020C0008801892B8A2B8B2B49F180918401811106
:1020D00004C098B180E4892788B9809185019091E6
:1020E0008601A0918701B0918801181619061A0679
:1020F0001B06B4F48091850190918601A09187011F
:10210000B09188010197A109B1098093850190934D
:102110008601A0938701B093880102C00E94A60F98
:10212000FF91EF91BF91AF919F918F917F916F91AF
:102130005F914F913F912F910F900FBE0F901F9085
:1021400018953F924F925F926F927F928F929F92DB
:10215000AF92BF92CF92DF92EF92FF920F931F93B5
:10216000CF93DF933C01EB018A01CA01861B970BD9
:1021700097FF03C09195819591093324339480345E
:10218000910554F0312C0C171D0764F07E0180E49A
:1021900090E0C0E0D0E00CC0C80100E410E0E12C09
:1021A000F12C06C078018E0180E090E0C0E4D0E020
:1021B00028014E185F085C01AC1ABD0AB7FE03C0C7
:1021C000B194A194B108620157FE03C02FEFC21A67
:1021D000D20AD594C794C817D90714F08FEF01C05D
:1021E00081E0882E880F99080E151F05BCF021E0AC
:1021F000332019F0A701BE0102C0AE01B701C3012F
:102200000E94970BCA18DB08D7FE04C0C80DD91D61
:10221000C40CD51C8FEFE81AF80AE6CFDF91CF91F6
:102220001F910F91FF90EF90DF90CF90BF90AF90F4
:102230009F908F907F906F905F904F903F90089508
:102240006FEF70E0681B71098AE00E94F3096FEF7D
:1022500070E08BE00E94F3096FEF70E089E00C946E
:10226000F309809190018EBDE1E9F1E081910DB417
:1022700007FEFDCF8EBD85E0E039F807B9F70DB454
:1022800007FEFDCF08952F923F924F925F926F927B
:102290007F928F929F92AF92BF92CF92DF92EF92F6
:1022A000FF920F931F93CF93DF93CDB7DEB728979D
:1022B0000FB6F894DEBF0FBECDBF5A01822E912C0F
:1022C0009C01280D391D37FDC4C0803891050CF0E4
:1022D000C0C09B01200F311D37FDBBC060347105AC
:1022E0000CF0B7C0AB0177FF04C044275527461B4D
:1022F000570B477055279B0177FF02C0295F3F4F5F
:10230000E3E035952795EA95E1F777FF08C021507E
:10231000310968E070E0DB01A41BB50BAD01602F53
:1023200066956695669570E0077011F06F5F7F4F58
:10233000DB01A20FB31FBA83A98339017694762CEF
:10234000662477946794680E791EE12CF12C00E0E6
:1023500010E02301B0E84B0E511C68E070E0DB0197
:10236000A41BB50BBC83AB8369817A812617370721
:1023700009F46FC02830310509F46BC02F3FBFEF5F
:102380003B070CF45BC0B201600F711FDB01A0576B
:10239000BE4FBE83AD83D801A60DB71DA057BE4F5B
:1023A0006C0160E070E0681579050CF047C0E0E86A
:1023B000CE16D10409F442C0D7FC34C02F3FFFEF42
:1023C0003F0709F442C0FB01EE0DFF1DEA0DFB1DA6
:1023D000E491042E01C0EE0F0A94EAF73C90E32941
:1023E000EC9341155105F1F027303105D9F0FB018F
:1023F000EE0DFF1DEA0DFB1DE4912E2E312CF10197
:102400000B8002C0F595E7950A94E2F7F887EF8311
:10241000ED81FE813080EF81F885E3291F01ED8198
:10242000FE8120826F5F7F4FED81FE813196FE83BA
:10243000ED83FFEFCF1ADF0A1196B5CF2F5F3F4F25
:1024400000581F4FE80CF91C8FCF4115510579F644
:10245000E9CF28960FB6F894DEBF0FBECDBFDF914F
:10246000CF911F910F91FF90EF90DF90CF90BF9091
:10247000AF909F908F907F906F905F904F903F9024
:102480002F900895CF93DF93C6EDD5E08A819B818D
:1024900042E250E062E270E004960E94A1108A815C
:1024A0009B814CE550E06CE570E00496DF91CF91A4
:1024B0000C94A1102F923F924F925F926F927F9255
:1024C0008F929F92AF92BF92CF92DF92EF92FF9244
:1024D0000F931F93CF93DF93CDB7DEB7AE970FB6B1
:1024E000F894DEBF0FBECDBF8EA36AEE262E65E048
:1024F000362E1F861E869E012F5F3F4F3901109199
:10250000EE050E85812F90E0002E02C095958795EF
:102510000A94E2F780FFF3C2D1018C91882309F479
:10252000EEC28EA0811002C081508C93D1018C919B
:102530004BEA849F412D1124469555E0B52EB40EEB
:10254000F10134978081B9E1BB1508F4E7C290E04E
:10255000889763E070E00E94E22F6D8B603108F095
:10256000DDC29B0133273F8B2E8B2A523A4F84E0EA
:10257000840FF90150E1859FE00DF11D112480A128
:1025800018160CF0A8C2AB2DB0E0B98FA88FF901D6
:10259000B0E1BB9EE00DF11D112480A381E090E02D
:1025A000A0E0B0E004C0880F991FAA1FBB1F0A95C6
:1025B000D2F7809581238093EE0580E1861B8BA363
:1025C0004A5FE0E14E9FC00111248E889F889A8A5D
:1025D000898A10E0A12C00E0188A18A21F8E1D869F
:1025E000288D398D2F5F3F4F3CA72BA7AC014A5256
:1025F0005A4F5EA74DA72FEF2A8F90E0462F50E04D
:102600005E8F4D8F81E0860FA82FB0E0BAA7A9A7F3
:10261000492E512C49895A89441655060CF033C16C
:102620002D8D3E8D24193509D901A095B095BDA3F6
:10263000ACA32F5F3F4F8BA49CA4829EF001839E8E
:10264000F00D929EF00D1124FC8FEB8F9A8C292DAA
:1026500030E0A9014A525A4F5C8B4B8B812C912C54
:10266000A9A5BAA5A21BB30BB8A7AFA3782D5D8906
:10267000591708F4EFC0AE89BF89E989FA89EA17CA
:10268000FB070CF4E7C0F92E1AA280E06F1528F1C1
:10269000E72EAF2DB0E0AA52BA4FBE14E0F0FD0114
:1026A00020E1E29EE00DF11D1124D0A03AEA3D1593
:1026B00030F04FE7D41609F46DC2D1106DC2F9168F
:1026C00009F4B6C0F61609F4B3C0E71609F4B0C0B1
:1026D000EB10ABC0ADC0F394D9CF992309F19401AD
:1026E00040E050E0A82FB0E0E88DF98DE217F30745
:1026F000BCF0EB89FC89E40FF51FD0A0DD2059F078
:10270000F3017F01E618F708EA16FB0624F4F190BE
:10271000FD10F7CF8DC02F5F3F4F405F5F4FE4CF7D
:102720006F3040F5940140E050E0AFA1B8A5CB88F0
:10273000DC88AC0DBD1DE82EF12CE88DF98DE2177B
:10274000F307C4F0FD01E40FF51FD0A0D9A2DD20EE
:1027500061F0F3016F01C618D708CE14DF042CF422
:10276000D190C9A0DC10F6CF63C02F5F3F4F405F10
:102770005F4FE3CFF9E1BF16E9F09201482F50E037
:10278000CD8CDE8CC216D306ACF0EDA5FEA5E20F13
:10279000F11DF0A0FF2059F0F301DF01A619B709E0
:1027A000A417B50724F4A191AF11F7CF41C02F5F53
:1027B0003F4FE6CF8114910421F12FEF270F40E125
:1027C000249F90011124A2012A523A4FA82FB0E071
:1027D000ED8DFE8DE417F507A4F0F901E40FF11D6E
:1027E000D0A0DD2059F0F3017F01E618F708EA16C2
:1027F000FB0624F4F190FD10F7CF1AC04F5F5F4F36
:10280000E7CFC82ED12CE12CF12CC092F105D0924B
:10281000F205E092F305F092F405CB8CDC8C8C9DF4
:1028200090018D9D300D112405C08C3008F4C3C17A
:1028300020E030E0DD844D2D50E04217530750F486
:102840002D872091F1052F8F3AA138A31B2D062F3C
:10285000A72E988B4FEF841A940AAB8DBC8DECA1F8
:10286000FDA1AE0FBF1FBC8FAB8F2B893C89205FB2
:102870003F4F3C8B2B8B8B1408F4F8CE9F5F3A8D27
:102880003F5F3A8FC5CEE989FA893196FA8BE98B99
:102890006F5F862FFD898F1B8BA0881508F4ABCE48
:1028A0007801BF8D2B2F30E040E050E02093F10500
:1028B0003093F2054093F3055093F405ED85EE2334
:1028C00009F42CC1D090E005F8A1FF23E9F0689449
:1028D000D2F8D092E00582E380939A0746ED55E066
:1028E0008DEF20E030E0FA01E20FF31F90A191118B
:1028F00080A32F5F3F4F20313105A9F7405F5F4F25
:102900008150833E71F70AC18D84682D70E080E0AC
:1029100090E00E94772DC9016894D2F8D092E0052A
:102920003091A007323011F484E10BC0880F991F59
:102930008A3F910528F4220F275E20939A0703C04F
:102940008AEF80939A07BA2C988980E0202F30E094
:10295000492F50E0F901E41BF50B6B2D70E0329725
:102960003CF4E12FF0E0E61BF70B32970CF4A8C023
:10297000DB01E4E0AA0FBB1FEA95E1F7D92E0D15A4
:10298000E0F0FD01ED0DF11DEA52FA4FC0A00F2E4F
:10299000FAEA9F2EF02D9C1470F00F2EFDEFCF2E33
:1029A000F02DC81A0F2EFAEA8F2EF02D8C1408F095
:1029B000DDC08F5FC0A2D394E2CFAB2D1A17A0F079
:1029C000F901B0E1AB9FE00DF11D1124EA52FA4F7D
:1029D000B0A1BB3A38F4BDEFB81BBB3A08F4CBC08A
:1029E0008F5FB0A3AF5FEACFE12FF0E0FA8BE98B06
:1029F0006F01B4E0CC0CDD1CBA95E1F7902E99156F
:102A0000A8F4F601E90DF11DEA52FA4F40A0AAEA36
:102A10008A2E841448F0BDEF4B2E481AAAEAA4155A
:102A200008F0ABC08F5F40A29A94E9CFD12EBD14BD
:102A3000B8F4FA01A0E1DA9EE00DF11D1124EA528A
:102A4000FA4FC0A0BAEABC1548F0BDEFCB2EC81AA9
:102A5000BAEABC1508F094C08F5FC0A2DA94E7CF41
:102A6000421753074CF49F5F492F50E04F5F5F4F71
:102A7000421753070CF40150E989FA896E177F0752
:102A80000CF064CFB394402F50E0292F30E02F5F3B
:102A90003F4F241735070CF059CF115057CFFA018B
:102AA000E90FF11DEA52FA4F30A13B3A08F46BC02E
:102AB0009F5F2150382F390FE91688F7832FA39491
:102AC000FA1460F1F0E1AF9EA00111242DEF281B54
:102AD0009889891BEFCF87FF21C081E090E0A0E0BB
:102AE000B0E004C0880F991FAA1FBB1F0A95D2F738
:102AF00080959091EE0589238093EE050FC081E0CB
:102B000090E0A0E0B0E004C0880F991FAA1FBB1F8F
:102B10000A95D2F7809518231093EE052E853F85F0
:102B20002F5F3F4F3F872E873FEF231A330A4E8593
:102B30005F854430510509F0E2CCAE960FB6F894AB
:102B4000DEBF0FBECDBFDF91CF911F910F91FF90E0
:102B5000EF90DF90CF90BF90AF909F908F907F903D
:102B60006F905F904F903F902F9008950F2EFBEA4B
:102B7000CF2EF02D1ECFBBEA33CFABEA4A2E52CF79
:102B8000ABEACA2E69CF2B3A18F0322F30A390CF80
:102B90003BEAFCCFE1E0EAA38C3008F049CEF30138
:102BA000282F30E0AF0146195709421753072CF47C
:102BB00041914D11F7CFE39470CD8F5FF301E20F98
:102BC000F31FD082F8CFCF92DF92EF92FF920F9354
:102BD0001F93CF93DF936B01770FEE08FF08F7FE8B
:102BE0001BC0EC016DE20E946A098C014427552745
:102BF000BA014C195D096E097F092AE0CE010E94D5
:102C0000AA09800F911FDF91CF911F910F91FF9023
:102C1000EF90DF90CF9008952AE0B701A601DF91F1
:102C2000CF911F910F91FF90EF90DF90CF900C9478
:102C3000AA09FC0180918F01811103C08FEF9FEFE2
:102C400008959FB7F89482E08093E9002091F20004
:102C500030E01216130614F421E030E0211531059E
:102C600059F0289884E680938E018091F10080834A
:102C70008091F200882319F09FBFC90108958BE667
:102C80008093E800F9CF2FB7F89483E08093E900B0
:102C90009091E800892F807295FF04C09091F20016
:102CA00080E4891B2FBF08958091E30781110DC037
:102CB00082E08093DF0784E08093E0071092E207D0
:102CC0001092E10781E08093E3078FED97E008958C
:102CD000CF93DF931F92CDB7DEB76983DC01ED910F
:102CE000FC910280F381E02D41E050E0BE016F5F76
:102CF0007F4F09950F90DF91CF91089583E08093E6
:102D0000E9008091F200882319F08AE38093E800BB
:102D10000895FC018485958597FD0BC09FB7F894B5
:102D200082E08093E9008091F2009FBF90E00196DD
:102D300008959FB7F89482E08093E9008091F200B3
:102D40009FBF90E008958F929F92AF92BF92CF92D3
:102D5000DF92EF92FF920F931F93CF93DF935C016B
:102D60006B017A0180910B01882309F45BC080918B
:102D70008F01882309F456C08091410880FF05C067
:102D80008091E00082608093E000E70110E00AEFAC
:102D900083E0882E9AE3992E2097D9F10E9443165A
:102DA00081110AC0015009F43DC061E070E080E08B
:102DB00090E00E94C60AF0CF282F30E0C217D30758
:102DC0000CF48C2F4FB7F8948092E9009091E800B2
:102DD00095FF1DC0282F30E0C21BD30BF601982FA2
:102DE000915020F081918093F100FACFC20ED31E52
:102DF000112319F09092E80009C08091E80085FD48
:102E000006C09092E80011E0209709F010E04FBF53
:102E1000C3CF1111C3CF5D9884E6809342081E147E
:102E20001F0444F081E090E0F5019383828380E009
:102E300090E001C0C701DF91CF911F910F91FF90EA
:102E4000EF90DF90CF90BF90AF909F908F900895BC
:102E50000E94431690E00895CF93DF931F92CDB761
:102E6000DEB7FC018485958597FD05C02FEF3FEF08
:102E7000358724870BC0CE0101960E941916019751
:102E800019F4898190E002C08FEF9FEF0F90DF91DE
:102E9000CF9108950F931F93CF93DF931F92CDB7D8
:102EA000DEB78C01FC018485958597FF0EC0CE01AD
:102EB00001960E941916019719F4298130E002C089
:102EC0002FEF3FEFF80135872487F801848595853A
:102ED0000F90DF91CF911F910F910895CF92DF92C4
:102EE000EF92FF920F931F93CF93DF931F92CDB773
:102EF000DEB7182F062FE42E862F880F8E5F99835A
:102F00000E94A61A83E00E94A61AF12EC12E998172
:102F1000D92E8C2D8F19801798F4F601E7FE02C088
:102F2000849101C080810E94A61A182F80E00E941F
:102F3000A61A8123FFEFCF1ADF0A8111EACF01C061
:102F400081E00F90DF91CF911F910F91FF90EF9053
:102F5000DF90CF900895DF92EF92FF920F931F932F
:102F6000CF93DF93D82E8A017B01E40EF51EEB018F
:102F7000CE15DF0571F0D7FE03C0FE01849101C0BC
:102F800088810E94A61A21968111F2CF8FEF9FEFC0
:102F900001C0C801DF91CF911F910F91FF90EF9079
:102FA000DF9008950F931F93CF93DF931F92CDB7B8
:102FB000DEB782E0898342E450E063E870E180E8B4
:102FC0000E94AB170E945416DC0112960D911C91C1
:102FD00013970115110569F0D801ED91FC9102805C
:102FE000F381E02DBE016F5F7F4FC801099597FF08
:102FF00007C089810F90DF91CF911F910F910895A4
:10300000F80100851185E5CF1F920F920FB60F9240
:1030100011248F939F938091E1009091E100937F21
:103020009093E10083FF0FC01092E90091E090932C
:10303000EB001092EC0092E39093ED0010928F0160
:1030400098E09093F00082FF20C093E09093E90015
:103050009091F200992319F09AE39093E8009091EF
:103060004208992339F09091420891509093420878
:10307000992389F190918E01992339F090918E01D5
:10308000915090938E01992341F184FF10C080915B
:10309000E2008E7E81608093E2008091E1008F7E6D
:1030A0008093E100809141088E7E806111C080FF95
:1030B00016C08091E2008E7E80618093E200809154
:1030C000E1008E7E8093E100809141088E7E8160D8
:1030D0008093410804C05D9ACDCF289AD6CF9F91A6
:1030E0008F910F900FBE0F901F9018951F920F9207
:1030F0000FB60F921124CF92DF92EF92FF920F93AF
:103100001F932F933F934F935F936F937F938F936F
:103110009F93AF93BF93EF93FF93CF93DF93CDB77D
:10312000DEB76C97DEBFCDBF1092E9008091E8005A
:1031300083FFEDC168E0CE0145960E94D41A82EF6C
:103140008093E8008D8987FF05C09091E80090FF8B
:10315000FCCF03C09EEF9093E800982F907609F083
:10316000C6C09E892F89188D91110CC0803829F412
:10317000809140088093F10002C01092F1001092FB
:10318000F10048C1422F50E0512B913051F4811190
:1031900041C14130510509F03DC1809140088D7F0A
:1031A0000BC0933061F4811135C14130510509F0F4
:1031B00031C1809140088260809340082BC19530D6
:1031C00041F48091E80080FFFCCF20682093E30069
:1031D00021C1963009F05FC0EB8CFC8C1092E900A5
:1031E00010923E0810923D08123091F510923C0862
:1031F00010923B080E94D21799E0BE016F5F7F4F8B
:10320000DB01E92F1D92EA95E9F799831A8391E092
:103210009E8390EA98879AEF998720913D08309194
:103220003E08275F3F4F3C832B838D831092E9003C
:1032300010923E0810923D08F0923C08E0923B0844
:1032400049E050E080E00E94AB170E94D217E2C034
:10325000F0923C08E0923B080E945416DC01129662
:10326000ED90FC901397E114F10409F4C0C0D7016C
:10327000ED91FC910480F581E02DBE016B5E7F4FE6
:10328000C7010995009719F00CF0C4C0C7C0F70139
:10329000E084F184E8CF973009F4C0C0983021F47D
:1032A00081E08093F100B6C0993009F0B3C083701B
:1032B00009F0B4C0E5E6F1E081E021E036E3908179
:1032C000992361F08093E9002093EB009191909312
:1032D000EC003093ED008F5F873089F78EE78093A5
:1032E000EA001092EA008F8980938F0193C08B8D42
:1032F0009C8D1092E90010923E0810923D08909328
:103300003C0880933B08898D811156C08E899D8928
:10331000913A59F4813209F081C047E050E064E00D
:1033200071E080E00E94AB1775C0913209F076C061
:10333000833289F4888D90E0982F88272F89822BFB
:10334000A0E0B0E08093000190930101A0930201FE
:10335000B09303015FC0803269F48091E80082FF7E
:10336000FCCF67E084E091E00E94D41A8BEF809359
:10337000E80006C0823209F04DC08F8980930B01AE
:1033800080913F08882319F0EEEFFAE002C0E0E0F8
:10339000F8E08091040190910501A0910601B0919F
:1033A0000701803B9440A105B10509F07BC08091E5
:1033B0000B0180FF93C076C00E945416DC01129668
:1033C0000D911C9113970115110541F1D801ED9153
:1033D000FC910190F081E02DBE016B5E7F4FC80132
:1033E0000995811117C0F80100851185ECCF1130C6
:1033F00009F44EC0133091F48F89882309F445C035
:10340000823081F440E867E087EE90E10E946E1719
:10341000882321F08EEF8093E80079C081E28093C9
:10342000EB0075C0813029F440E86BE08BED90E152
:10343000EDCF833099F70E945416DC011296ED907F
:10344000FC9013978E010F5F1F4F6801E114F10488
:1034500079F0D701ED91FC910680F781E02DB8015C
:10346000C7010995080F111DF701E084F184EECF23
:10347000D8011C92F60101900020E9F73197BF01B5
:103480006C197D0940E0C601C1CF65EC70E102C056
:1034900069EC70E16115710509F2FB01449150E09E
:1034A00080E840CF0FB6F894A895809160008861BD
:1034B00080936000109260000FBEA895EE3F2AE056
:1034C000F20739F08091FE0A9091FF0A9183808380
:1034D000A1CF1092FF0A1092FE0A9CCFEE3F8AE025
:1034E000F80731F0808191819093FF0A8093FE0A62
:1034F00087E797E7918380839BE088E10FB6F89494
:10350000A895809360000FBE9093600083CF6C9667
:103510000FB6F894DEBF0FBECDBFDF91CF91FF9104
:10352000EF91BF91AF919F918F917F916F915F913B
:103530004F913F912F911F910F91FF90EF90DF904E
:10354000CF900F900FBE0F901F90189540913D089F
:1035500050913E0820913B0830913C084217530798
:10356000B4F49091E8009570E1F39091E80092FD39
:1035700019C08093F10080913D0890913E0801961A
:103580008F739927892B19F48EEF8093E80080912F
:103590003D0890913E08019690933E0880933D0827
:1035A00081E0089580E00895615030F02091F100AD
:1035B000FC0120830196F8CF289884E680938E0141
:1035C0000895CF93DF93CDB7DEB76D970FB6F8941C
:1035D000DEBF0FBECDBF789484B5826084BD84B554
:1035E000816084BD85B5826085BD85B5816085BDFE
:1035F00080916E00816080936E00109281008091B6
:10360000810082608093810080918100816080933D
:103610008100809180008160809380008091910082
:1036200082608093910080919100816080939100ED
:10363000809190008160809390008091C1008460AF
:103640008093C1008091C10082608093C10080910D
:10365000C10081608093C1008091C300816080932C
:10366000C3008091C00082608093C0008091C2003E
:1036700081608093C20080917A00846080937A0098
:1036800080917A00826080937A0080917A008160D4
:1036900080937A0080917A00806880937A001092FB
:1036A0008F0110924008109241088091D7008160EC
:1036B0008093D70080EA8093D80089B5806189BD66
:1036C00089B5826089BD09B400FEFDCF61E070E07C
:1036D00080E090E00E94C60A8091D8008F7C8061D3
:1036E0008093D8008091E000807F8093E0008091FB
:1036F000E1008E7E8093E1008DE08093E200559A98
:10370000209AEEEFFFE7859194918B3F9C4D19F441
:1037100081E080933F0881EC80937C0085B1806FCD
:1037200085B9249884B1866E84B95E9A5F988AB10F
:10373000806D8AB9769A6E9881B3806F81BB8998C3
:1037400080B38D7080BB80E58CBD81E08DBD85E050
:1037500090E00E944A0B5F9A85E090E00E944A0B3D
:103760005E985C98E6E0F1E08DE08E0F94919EBD4E
:1037700000000DB407FEFDCF31968E13F7CF5C9A93
:1037800081E88093640081E08093650081E280930A
:10379000CC0782E090E09A838983CE0101960E9453
:1037A000380E882319F00E94710B02C00E946C0B26
:1037B00083E290E09A838983CE0101960E94380EBD
:1037C000882361F086ED95E00E943D0E882331F05C
:1037D00081E090E09093820180938101BE016F5F50
:1037E0007F4F1B012FB7F894809178019091790158
:1037F000A0917A01B0917B012FBF4091D1075091E8
:10380000D2076091D3077091D4072091D507222366
:1038100049F02091CD07821B8093D6071092D507DF
:103820000C94462984179507A607B70788F4481B08
:10383000423010F40C94462983B7817F83BF83B74D
:10384000816083BF889583B78E7F83BF0C944629A0
:1038500021E02093D5078093CD079093CE07A093C6
:10386000CF07B093D0072091CC07820F911DA11DE7
:10387000B11D8093D1079093D207A093D307B09343
:10388000D4078091C8079091C90701969093C90702
:103890008093C8078091810190918201892B09F062
:1038A0008EC28091C007843058F0D090BF078D2D14
:1038B000880FD80E8D2D819596E2D92ED80E02C094
:1038C00086E2D82E0091B3071091B407D80119965B
:1038D0008C9119971A968C930E944F0BF80181874F
:1038E0008091B3079091B4070E94770B8090B7073F
:1038F0009090B807A090B907B090BA0720E030E0E8
:103900004CE052E4C501B4010E949C2E18162CF420
:1039100020E030E040E850E42CC04090BB075090DD
:10392000BC076090BD077090BE0723E333E343E319
:103930005FEBC301B2010E949C2E181634F52FE8EC
:1039400032EC45EF5CE3C301B2010E94A82D609305
:10395000BB077093BC078093BD079093BE070E947E
:103960000E2F20E030E040E850E40E94A12E9B01A1
:10397000AC01C501B4010E94A82D6093B7077093F4
:10398000B8078093B9079093BA070D2D10E078011E
:10399000F3E0EF0EF11C8091BF07A70128E0829FA2
:1039A000400D511D11248091B3079091B40721E07F
:1039B0006CE170E004960E94970B8091BF07A8010C
:1039C0004E5F5F4F38E0839F400D511D1124809161
:1039D000B3079091B40721E06BE170E004960E9478
:1039E000970B8091BF07A70168E0869F400D511D8E
:1039F00011248091B3079091B40721E06BE170E04E
:103A000004960E94970B8091BF07A8014C5F5F4FFF
:103A100078E0879F400D511D11248091B30790914C
:103A2000B40721E06BE170E004960E94970B80914F
:103A3000B3079091B40720E230E0DC0157963C9345
:103A40002E93569759961C930E9358972091800168
:103A5000222319F068EF7AE002C06DEE7AE00E944E
:103A60007109E090B307F090B40780E290E0F701AD
:103A7000978B868B88E08D0D90E0918F808F83E20D
:103A800090E09A838983C1010E94380E182F882301
:103A900019F063EE7AE002C068ED7AE0C7010E9497
:103AA0007109E090B307F090B40780E290E0D7018D
:103AB00057969C938E93569780E18D0D90E0599682
:103AC0009C938E9358978091B207833070F081E277
:103AD00090E09A838983C1010E94380E833018F4E4
:103AE0008093B20702C01092B20761ED7AE0C7017D
:103AF0000E9471098091B207813049F028F082302C
:103B000071F460EC7AE005C06CEC7AE002C065EC20
:103B10007AE08091B3079091B4070E947109809177
:103B2000C0078430F1F48091B3079091B40720E28C
:103B300030E0FC01378B268B28E12D0D30E0318FF2
:103B4000208F68EB7AE00E9471094091B10750E044
:103B500060E070E02AE08091B3079091B4070E9482
:103B6000AA098091B5079091B6070E94020D60E006
:103B70008091B5079091B6070E94A50CE090B3071D
:103B8000F090B407F4E0EF0EF11C68E0C7010E946A
:103B90008D0B882319F081E08093B00764E0C701A2
:103BA0000E948D0B882369F181E08093AF0780919B
:103BB00064008E7F8093640080917A00806480939B
:103BC0007A0080917A0086FDFCCFE0907800F0903A
:103BD00079000E94A10A6701E12CF12C7601DD2415
:103BE000CC246C0D7D1D8E1D9F1D611571058105F9
:103BF000910511F00E94262D8091640081608093D0
:103C00006400E090B307F090B40724E0E20EF11CEA
:103C100060E1C7010E948D0B882359F08091BF0796
:103C20008F5F8093BF079091C007891302C01092E5
:103C3000BF0760E8C7010E948D0B882349F080917F
:103C4000BF07811102C08091C00781508093BF07D8
:103C500060E2C7010E948D0B811106C060E4C701BC
:103C60000E948D0B8823D9F08091BF07811111C06C
:103C700080918001882311F40C944D290E946C0BD3
:103C80006091800182E090E09A838983C1010E9463
:103C9000AB0E8091BF07813011F40C945129009133
:103CA000B3071091B407780134E0E30EF11C60E231
:103CB000C7010E948D0B8823C9F09091BF079330F4
:103CC00049F48091B107815011F00C945F2988E08C
:103CD0000C945F29923051F48091B207811103C096
:103CE0009093B20703C081508093B20760E4C7018C
:103CF0000E948D0B8823D9F08091BF07833059F43F
:103D00009091B1079F5F993011F00C94632981E085
:103D10008093B1070CC0823051F48091B207823099
:103D200019F41092B20703C08F5F8093B20789E63F
:103D300090E0D80157969C938E93569788E390E035
:103D400059969C938E93589763EB7AE0C8010E9432
:103D500071096091B7077091B8078091B907909188
:103D6000BA070E94152EDC01CB010FE128E749E7D5
:103D700058E065E070E00E9443110E94311180918B
:103D8000AF07882371F081E090E0909382018093E7
:103D900081014091B2076091B10786ED95E00E94E4
:103DA000100F8091B007882351F082E090E090934B
:103DB0008201809381018DEA97E00E94730E8091C9
:103DC000810190918201019711F00C9430270091AC
:103DD000D8051091D905F801818582870E944F0B83
:103DE000D80119968C938091D8059091D90568E0F7
:103DF00004960E948D0B8823A9F18091A507882342
:103E0000A1F01092A50783E290E09A838983C10113
:103E10000E94380E882331F185E192E09A838983EC
:103E200060E0C1010E94AB0E1DC081E08093A50738
:103E300083E290E09A838983C1010E94380E88232F
:103E400089F004E510E0F801E457FA4F60811A8325
:103E50000983C1010E94AB0E0F5F1F4F0731B2E013
:103E60001B0789F78091A507811149C18091DC0565
:103E70009091DD050E94020D8091E00585FD3FC116
:103E80008091EF05E091DA05F091DB05863138F09D
:103E900090E04597982F990F890F848301C0148271
:103EA0008091A30781115DC080919907811105C0A0
:103EB0009091EF05993109F054C09091E0058F5F22
:103EC000809399079D7F98609093E005813099F5E4
:103ED000809171008D7F8093710080E995E09093CF
:103EE0007F0180937E0190937D0180937C0180E926
:103EF00091E090939105809390058CE291E09093EE
:103F000093058093920528EC30E03093950520933B
:103F10009405909397058093960586E990E0909399
:103F200099058093980588E592E090939B0580938E
:103F30009A050E94A60F80919907843641F480E08B
:103F40000E9420118091E00581608093E005E0915E
:103F5000DA05F091DB0585818111D1C081E085838F
:103F6000CEC01091E5051123F1F08091D805909114
:103F7000D90560E204960E948D0B882331F0115020
:103F80001093E5051092F5050EC00E944F0B85FFBA
:103F90000AC08091F50591E0980F9093F505843063
:103FA00010F00C9467291091E5051F30F0F4809112
:103FB000D8059091D90560E404960E948D0B882362
:103FC00031F01F5F1093E5051092F5050EC00E94B9
:103FD0004F0B86FF0AC08091F50591E0980F9093F2
:103FE000F505843010F00C9470290E944F0B282F97
:103FF000221F2227221F9091E00520FB91F9909328
:10400000E0058091D8059091D90564E004960E945E
:104010008D0B882309F46DC08091EE0590E000E0DF
:1040200010E09C01002E02C0359527950A94E2F716
:1040300020FD59C0809171008D7F8093710080E9CF
:1040400095E090937F0180937E0190937D01809312
:104050007C0184E893E0909391058093900583E23E
:1040600090E0909393058093920520E233E03093A3
:10407000950520939405909397058093960520E9E4
:1040800031E0309399052093980590939B05809398
:104090009A050E94A60FF801EA52FA4F8091E505B1
:1040A000982F990F890F885D808B85E3848B809191
:1040B000EF05863138F090E04597982F990F890FDA
:1040C0008B5C848B81E090E0A0E0B0E004C0880FBE
:1040D000991FAA1FBB1F0A95D2F72091EE05822BCC
:1040E0008093EE0506C00F5F1F4F0430110509F0E5
:1040F00098CF80E00E945A1280E00E945A122091CC
:10410000A5078091D8059091D905222381F020E35D
:1041100030E0FC01378B268B24E130E0318F208F9B
:1041200062E778E00E9471090E9431112FC60E9457
:10413000770B80919D07813051F407E224E243EA36
:1041400057E069E170E08CE590E00E9443118091B6
:104150009D07823051F40AE224E247EC56E066E122
:1041600070E08CE590E00E94431180919D078330C0
:1041700051F40BE224E246EE55E065E170E08CE597
:1041800090E00E94431180919D07843051F40DE22C
:104190002AE14DE355E064E170E082E690E00E94A0
:1041A000431180919D07853051F40AE224E241E6F3
:1041B00054E066E170E08EE590E00E94431180914A
:1041C0009D07863051F40CE224E24CE753E065E1B0
:1041D00070E08EE590E00E94431180919D0787304A
:1041E00051F408E224E249EA52E068E170E08EE529
:1041F00090E00E94431180919D07883051F40EE2B7
:1042000024E24BEB51E063E170E08EE590E00E9428
:1042100043118091E505C090DA05D090DB05DE867C
:10422000CD8623E0829F60011124DE8ACD8A46017B
:1042300033E2830E911CAD85BE8514966C91149764
:1042400015968C911597882309F42AC1893198F421
:104250008F5F15968C93159716968C9116978D5F98
:1042600016968C930BE02CE041E351E065E370E09F
:10427000C4010E944311ED85FE858581893129F4B1
:104280008681882311F0815086831C8A1B8AE12C49
:10429000F12C4D885E88F9E24F0E511CAD85BE852C
:1042A00016964C91842F6AE00E94C22F282F30E08E
:1042B000E216F3060CF0C6C0AD85BE8512960D91D0
:1042C0001C9113970C5F1F4FCC24C394D12CCE1894
:1042D000DF08DA8AC98ACB88DC88D88ECF8A21E0C9
:1042E000A701465C5F4FB201C8010E94970B21E015
:1042F0004AE350E04E195F09B201C8010E94970BD2
:1043000021E04AE350E0B2016E0D7F1DC8010E941A
:10431000970B21E04AE350E0B2016E197F09C80112
:104320000E94970B6701612C712C21E030E03A8FDD
:10433000298F6C147D040CF07BC069897A8977FD24
:104340000EC071E0C71AD1088F89988D0296988F98
:104350008F8BA989BA89A80FB91FBA8BA98BBFEF18
:104360006B1A7B0AE98DFA8D3296FA8FE98F2989CB
:104370003A892E0F3F1F3A8B298BB201660D771DAC
:10438000788B6F8721E056017AE3A70EB11CA50157
:104390006F857889C8010E94970BC2018619970919
:1043A0009C878B8721E0A501BC01C8010E94970B67
:1043B00021E0AAE3AA2EB12CAC18BD08A5016F8597
:1043C0007889C8010E94970B21E0A5016B857C8547
:1043D000C8010E94970B53019AE3A90EB11C21E07A
:1043E000A501D201AC0DBD1DB88BAF87BD01C801C1
:1043F0000E94970B21E0A5015201AC18BD08B50140
:10440000C8010E94970BEAE3F0E0E619F709FC8780
:10441000EB8721E0AF016F857889C8010E94970B77
:1044200021E04B855C85B501C8010E94970B81CFC7
:10443000FFEFEF1AFF0A2B893C89225031093C8B90
:104440002B8B2CCF842F0E9420110D891E89025D99
:104450001F4F0815190584F1F5E3EF2EF12C0E948A
:10446000212D23E030E040E050E00E94452D672BF5
:10447000682B692B51F4ED85FE858281938120E0C4
:10448000A701B40104960E94970BFFEFEF1AFF0AF1
:1044900020E4E216F10419F73FEF831A930AD9CF0B
:1044A000062E000C770B6B5C7F4F0BE02CE041E39A
:1044B00051E0C4010E9443118091E00582FD07C0D4
:1044C00083FD05C0909198079F5F9093980784FDA6
:1044D0000FC090919E079A3058F010929E078F7BE4
:1044E000109297071092960780628D7F8093E00567
:1044F0008091E00581FB662760F985FF40C18091CE
:104500009607909197070196909397078093960747
:104510008091DC059091DD050E94A50C0E9442125D
:1045200020919607309197072A3E310568F5E09172
:10453000D805F091D9052832310550F486E290E093
:10454000978B868B80E490E0821B930B918F808FFA
:10455000C9018897CC9738F486E290E0978B868BD8
:1045600088E190E00BC02436310550F086E290E0FF
:10457000978B868B8CE790E0821B930B918F808FBB
:1045800061EB71E0CF01A5C02C3241E03407E8F4C3
:1045900062E171E0621B730B769567958091E0058F
:1045A00082608093E00516163CF4062E000C770B13
:1045B000880B990B0E94C60AE091DA05F091DB05A1
:1045C000909196078AEE891BA1C02E3561E03607CF
:1045D00070F580919D07883070F58091D805909195
:1045E000D90524E330E0DC0157963C932E9356978F
:1045F00024E130E059963C932E9358976CEA71E091
:104600000E9471098091D8059091D90521E330E08D
:10461000FC01378B268B2CE130E0318F208F66EA4E
:1046200071E00E9471098091E0058D7F83C028367A
:10463000F1E03F0758F480919D07883060F4E091E5
:10464000DA05F091DB0588E6821B60C0243843E080
:10465000340708F041C080919D07883009F040C0C0
:104660008091D8059091D90525E230E0DC0157967C
:104670003C932E93569724E130E059963C932E9329
:1046800058976CE971E00E9471098091D80590916A
:10469000D90526E330E0FC01378B268B2CE130E096
:1046A000318F208F68E971E00E9471098091D805EF
:1046B0009091D9052EE230E0DC0157963C932E9381
:1046C000569724E230E059963C932E93589760E930
:1046D00071E00E94710930C02C3DB5E03B07C0F489
:1046E00080919D07883041F58091E005826080933C
:1046F000E005E091DA05F091DB05C90184589340AB
:1047000065E070E00E94CE2F8AE0861B848314C08F
:104710002C3D354089F480919D07883069F482E210
:1047200090E09A83898362E3C1010E94AB0E80917D
:10473000E00581608093E00580919607909197074E
:104740008836914009F0A9C280919D07883008F011
:10475000A4C29091E0059F7D9093E0051092970789
:10476000109296078F5F80939D0710929E0726EA0E
:1047700037E04091A00760E00E94930D8EC28091C7
:10478000A6076111869590919807981708F4D7C0ED
:1047900010929807809196079091970701969093B1
:1047A00097078093960780919B078F5F80939B0765
:1047B00060919E074091A70720919C079091A907BF
:1047C0006A3008F07BC0841708F078C0291708F019
:1047D00075C019821A821B821C821D821091A80743
:1047E000169508E0011B195F653008F482C50E9428
:1047F000212D2EE130E040E050E00E94452D672B56
:10480000682B692B09F075C521E0298B8091AC07D5
:104810008A30F0F007FD00E010310CF01FE0612E4F
:10482000012E000C7708202F002E000C330BC30143
:10483000821B930B97FD019695958795820F931F89
:10484000BC01635071097C8B6B8BE02E1D8630C0E0
:104850000E94212D22E030E040E050E00E94452DF2
:104860006130710581059105A9F639C06091AC07E9
:104870006B3008F040C570E06F5F7F4F072E000C73
:10488000880B990B0E9446096130710581059105DD
:1048900009F031C50E94212D23E030E040E050E0D6
:1048A0000E94452DDC01CB010196A11DB11DE80E32
:1048B0008E2D90E086159705CCF211C0291720F0B7
:1048C00010929C0740939B0720919B0730E08091BA
:1048D000AA0790E0840F911D821793071CF0E6E968
:1048E000F7E01BC010929B0780919F078F5F80931A
:1048F0009F079091AB07891790F36F5F60939E07B6
:1049000010929F0710929C0726EA37E04091A0077B
:1049100080919D070E94930DE2CFDF0151978C910A
:104920008293A6E0E630FA07C1F7E6EFF5E080E112
:104930008E0F11928E13FDCF81E00E945A1260916A
:10494000E005669561708091DC059091DD050E941F
:10495000A50CE12CF12C8091EE0590E00E2C02C00C
:10496000959587950A94E2F780FF0DC0F701EA520A
:10497000FA4F648970E0808903E023E04EE751E05C
:1049800090E00E944311BFEFEB1AFB0AE8E0EE163D
:10499000F10409F7C12CD12CE12CF12C412C512C24
:1049A00021EF3FEF388B2F87198A1B8A712C8FEFED
:1049B000870DE0E18E9FD0011124B88FAF8B92015B
:1049C000205F3F4F3E8B2D8BB2016A507A4F7E871E
:1049D0006D87A12CB12CC2018A529A4F9A8F898F70
:1049E000AD85BE851C91112371F07501EE0CFF1C85
:1049F000EA0CFB1CB8E2EB0EF11C7092EF05CF84C1
:104A0000D88831E03B8B8FEF810F8E3708F05FC085
:104A100003E023E044E851E0B601C7010E944311DE
:104A20000A2DA114B10471F08FEF8A0DE98DFA8D72
:104A3000E80FF11D80A1811709F43AC5612C0F30F0
:104A400011F408C0612CAD85BE8511968C9181173B
:104A500009F43DC500E08D849E8484189508772074
:104A600069F0EF89F88DE80DF91D8081811709F44F
:104A70003EC530E0B9E17B1202C009C030E0ED89EB
:104A8000FE89E80DF91D8081811709F43EC5912C3E
:104A9000662041F1332309F44BC58091D8059091EC
:104AA000D90520E0A601B70104960E94970B0023C8
:104AB00009F440C58091D8059091D90520E0A60160
:104AC000B7016E5F7F4F04960E94970B0FC01F3790
:104AD000F9F403E023E041E851E0B601C7010E9488
:104AE00043117CC00023A1F03111E4CF992081F063
:104AF0008091D8059091D90520E0A6014E5F5F4FC7
:104B0000B7016E5F7F4F04960E94970B611015C529
:104B100017FF64C003E023E044E851E0B601C70199
:104B20000E94431180919A07811107C01F3F41F0F5
:104B30001F5FED85FE8510834FC01F3F09F04CC0FD
:104B4000AD85BE851C92809171008D7F8093710030
:104B5000E0E9F5E0F0937F01E0937E01F0937D01C1
:104B6000E0937C0120E931E030939105209390059A
:104B700069E170E0709393056093920580E293E0A1
:104B8000909395058093940570939705609396058F
:104B9000A0E0B0E8B0939905A09398050E94A60FF5
:104BA0004091F1055091F2056091F3057091F40583
:104BB0008091E1059091E205A091E305B091E405B3
:104BC000840F951FA61FB71F8093E1059093E20500
:104BD000A093E305B093E40531E0398B4FEFA41ABD
:104BE000B40A6D857E856F5F7F4F7E876D8770E12C
:104BF000A716B10409F0F4CE73948F8598890396B3
:104C0000988B8F874D885E889AE17912D0CE8091FB
:104C10009A07882319F0815080939A078091E005C4
:104C2000CB88C0FA84F98093E00582FF06C0D9885A
:104C3000D11003C08B7F8093E0050E944212E09167
:104C4000E50523E0E29FC00111248896F0E0EA57D1
:104C5000F84F69E170E02081222389F06F5F7F4F78
:104C60009B01220F331F620F731F6F5071091616BD
:104C700017069CF403E023E047E851E00CC06150C4
:104C8000710970976230710531F703E023E047E85E
:104C900051E060E070E00E9443118091D80590914E
:104CA000D9052FE530E0DC0157963C932E935697BB
:104CB00002E010E059961C930E9358974091E1053D
:104CC0005091E2056091E3057091E4052AE00E94AD
:104CD000AA098091D8059091D905FC01178B068B04
:104CE000118F008F6AE871E00E94710920919E0780
:104CF00021508091D8059091D905293038F5E7E009
:104D0000F0E0DC015796FC93EE9356972FE030E0ED
:104D100059963C932E93589740919D0750E060E040
:104D200070E02AE00E94AA096FE28091D805909174
:104D3000D9050E946A0940919E0750E060E070E04A
:104D40002AE08091D8059091D90513C02EE030E07B
:104D5000DC0157963C932E9356972FE030E05996FE
:104D60003C932E93589740919D0750E060E070E08F
:104D70002AE00E94AA090E9431118091A407882389
:104D800029F081E08093A5071092A4078091E005A7
:104D900080FF66C04091E1055091E2056091E30516
:104DA0007091E405411551056105710509F450C084
:104DB00082E090E0909382018093810186E080936D
:104DC000CE05E0EAF5E080E090E0068117812085DD
:104DD0003185041715072607370718F48093CE0589
:104DE00005C0019637968630910579F78091CE05FA
:104DF000863090F5A6ECB5E024E030E08091CE0559
:104E000090E0FD0137972817390794F0C380D480CC
:104E1000E580F680C286D386E486F586C080D180A0
:104E2000E280CD92DD92EC9221503109DF01E6CF94
:104E300021E02093CD0527E0289FF001299FF00D68
:104E40001124E056FA4F468357836087718704C068
:104E500010928201109281018DEA97E00E94730EF8
:104E600000918101109182010230110509F004C204
:104E70008091D4059091D5050E94770B8091D4053F
:104E80009091D50528E230E0FC01378B268B118EFE
:104E9000108E67E271E00E9471098091CD0581302A
:104EA00009F019C1E090D405F090D505D701199605
:104EB0008C9119971A968C930E944F0BF70181875A
:104EC0008AE0EEE6F1E0D10101900D928A95E1F7DA
:104ED0008091D1059091D205A091D3058B839C83BD
:104EE000AD83E091D405F091D505178B068B80E159
:104EF00090E0918F808F8091CF058F5F843119F082
:104F00008093CF0502C01092CF058091CE058930E5
:104F100048F447E0C42ED12CD78AC68A80E190E0BD
:104F2000918F808F6091CE0570E06F5F7F4FCF01D2
:104F30000E94E3158091CF058A30D0F42091D005EE
:104F40008091D4059091D50546E0249F90011124CD
:104F5000265E3F4FDC0157963C932E93569722E1F5
:104F600030E059963C932E9358976FE50E946A095A
:104F70008091D4059091D5052EE030E0FC01378B6F
:104F8000268B20E130E0318F208FB1010E949509FE
:104F9000E091CE0527E0E29FF0011124E056FA4FA0
:104FA00046815781608571852AE08091D405909172
:104FB000D5050E94AA090091D4051091D5050C5F72
:104FC0001F4F60E8C8010E948D0B882371F0E091AB
:104FD000D005F0E0E056FA4F81A990EC980F9A3195
:104FE00010F48F5F01C081E481AB60E1C8010E94D1
:104FF0008D0B882371F0E091D005F0E0E056FA4F78
:1050000081A99EEB980F9A3110F4815001C08AE576
:1050100081AB64E0C8010E948D0B811106C060E481
:10502000C8010E948D0B882341F08091D0058F5FCD
:10503000833009F08FC21092D00560E2C8010E944F
:105040008D0B882349F08091D005811102C082E048
:1050500001C081508093D00568E0C8010E948D0B8B
:105060008823C9F18091D1058F3541F48091D20513
:105070008F3521F48091D3058F3569F1E091CE050C
:1050800037E0E39FF0011124ED55FA4F8091D105EF
:105090009091D205A091D30580839183A283209122
:1050A000CE0547E0249F9001112480E090E040E28B
:1050B000FC01E20FF31FE056FA4F53815F3509F40C
:1050C000438301968330910599F780EA95E00E9429
:1050D000C50E1092CD058091CD058111B1C0009112
:1050E000D4051091D505D80119968C9119971A9667
:1050F0008C930E944F0BF801818793EAE92E95E08B
:10510000F92E0CE010E0C12CD12C22E0622E712C83
:105110003AE0432E512C8091D4059091D505DC01C5
:1051200057967C926E92569759961C930E93589769
:10513000E091D405F091D50527E030E0378B268B40
:10514000118F008F3FEFC31AD30AB6010E94E315F7
:105150008091D4059091D505EEE0F0E0DC01579602
:10516000FC93EE93569759961C930E935897D7013C
:1051700013964D915D916D917C911697452B462B21
:10518000472B29F463E171E00E9471093DC0F701EA
:1051900020813181428129833A834B831C826BE6D3
:1051A00071E00E949509B1018091D4059091D505D7
:1051B0000E949509D70113968D909D90AD90BC905B
:1051C0001697C40120E02F5F6AE070E00E94E22F92
:1051D000CB010097C1F78091D4059091D505A2012C
:1051E000421B5109B6E0B49F9001B59F300D1124C8
:1051F0002C5B3F4FFC01378B268B118F008F2AE0F1
:10520000B501A4010E94AA09075F1F4FF7E0EF0E46
:10521000F11C26E0C216D10409F07DCF0091D4051F
:105220001091D5050C5F1F4F68E0C8010E948D0BDF
:10523000811193C164E0C8010E948D0B81118DC161
:105240000E9431118091A2058823B1F01092CD0502
:105250001092CF0586E08093CE051092D0058FE5A1
:105260008093D1058093D2058093D3051092A20537
:10527000109282011092810180E090E0892B11F45C
:105280000C94F21B0E9400000C94F21B8091E0052C
:1052900081FF02C00C944A1CEFCF0E94710B0C944A
:1052A000401E83E290E09A838983112311F060E02D
:1052B00001C061E0C1010E94AB0E0C944F1E8093AF
:1052C000B1070C94761E9093B1070C94971E109220
:1052D000F5058091E50581508093E5050C94D31F79
:1052E0001092F5058091E5058F5F8093E5050C949C
:1052F000F51F198A8BCA8B898E0D282F30E0FF2469
:10530000FA94F00EF11AF80E621673060CF0F82EED
:10531000412C512CCF2CD12CDE8ACD8A87E0D82E7F
:10532000DF0CDF8A8091AC0790E0481659060CF03C
:10533000B1CA0E94212D2AE030E040E050E00E94F6
:10534000452D88248394860EF1019D85892F90E058
:10535000988B8F87CF0182199309AF85B8898A17F7
:105360009B0724F481918811F5CF39C08091E00525
:1053700086FF8DC01B869090F005BB85BB23D1F1C5
:105380002FE7298F882D90E0019745E0489F9001F5
:10539000499F300D1124B901645B7E4F5B01FB0115
:1053A00040E050E0249180E090E030E0DA01AA5241
:1053B000BA4FBD8FAC8F67E070E0681B790B690155
:1053C00002C0D594C7946A95E2F7C0FE1FC0CD888D
:1053D000DE88C80ED91E60E1C616D10468F090912F
:1053E0009C078091A907981708F079CA9FEF491A7E
:1053F000590A98CF998EC6CFDF2CD80EAC8DBD8DB3
:10540000AD0DB11D9096DC90D110E9CF019688309A
:10541000910589F63196405F5F4F4035510509F09F
:10542000C1CF40E050E0F501249187E090E030E00A
:10543000FA01EA52FA4FD901082E02C0B595A79594
:105440000A94E2F7A0FF09C0AF89A81B6F01CA0E3A
:10545000D11CD601D98C9096DC92019760F77FEF32
:10546000A71AB70A405F5F4F40355105E1F681E06A
:10547000890D8F3709F481E08093F0058B858823AF
:1054800049F08091E00580648093E00503C0C988FD
:10549000CB8671CF2D852F5F2D87EF85F889E20DA3
:1054A000F31D808280919C078F5F80939C0797CF2C
:1054B0008091D8059091D90520E0A6014F5F5F4FFC
:1054C000B70104960E94970B66246394B8CA809132
:1054D000D8059091D90520E0A6014F5F5F4FB70135
:1054E0006E5F7F4F04960E94970B01E0B4CA8091D3
:1054F000D8059091D90520E0A601B7016F5F7F4FD5
:1055000004960E94970B31E0B5CA8091D80590911E
:10551000D90520E0A6014E5F5F4FB7016F5F7F4F57
:1055200004963B8F0E94970B992493943B8DB0CAAD
:10553000011117C0992009F4EBCA8091D805909108
:10554000D90520E0A6014E5F5F4FB70104960E9487
:10555000970BDECA8093D00570CD81E08093A205C1
:105560006FCE992009F4D4CA8091D8059091D905BD
:1055700020E0A6014E5F5F4FB7016E5F7F4F04963C
:105580000E94970BDACF0895EF92FF920F931F932B
:10559000CF93DF9300D0CDB7DEB77C0181E090E000
:1055A0009A838983CE0101960E94380E80FF35C010
:1055B0008AE090E09A838983CE0101960E94380E9A
:1055C0009FEF980F9E3F48F522E330E0D7015796B2
:1055D0003C932E93569728E330E059963C932E93B4
:1055E00058970BE010E0D701ED91FC910190F0810C
:1055F000E02D682FC70109951A830983CE01019612
:105600000E94380E0F5F1F4F0131110561F70E9494
:10561000311188EE93E00E944A0B0F900F90DF91BA
:10562000CF911F910F91FF90EF90089504970C94E4
:10563000C42A7F928F929F92AF92BF92CF92DF92B5
:10564000EF92FF920F931F93CF93DF9300D000D080
:1056500000D0CDB7DEB71092EE071092ED0788EEBE
:1056600093E0A0E0B0E08093EF079093F007A09361
:10567000F107B093F2078AE191E09093EC078093F1
:10568000EB078FEF9FEF9093F8078093F707109247
:10569000C4071092C3071092CA071092CB0720E1EB
:1056A0002093CC079093C9078093C8071092D10725
:1056B0001092D2071092D3071092D4071092D507F8
:1056C00084E591E09093C2078093C10782E691E060
:1056D0009093C6078093C5071092D8071092D707FA
:1056E0001092DA071092D90781E08093DB071092BD
:1056F000DC078093DD071092DE078CE491E0909345
:10570000AE078093AD0787E290E00E94FC2F8C01EA
:1057100084E491E0F8019183808381EC97E096A383
:1057200085A310A280E881A312A280E483A384E071
:1057300084A37801F6E1EF0EF11C680120E2C20EAD
:10574000D11C23E0822E912CA12CB12CF80170A049
:1057500061A170E080E090E00E944609F701749733
:10576000670D6083F80172A063A170E080E090E0B3
:105770000E944609F7013A97670D60830E94212D28
:10578000A50194010E94452D6F5FF70161937F0190
:10579000EC15FD05D9F61093B6070093B50781EC1B
:1057A000E82E87E0F82EF092B407E092B307DD24EC
:1057B000D394D092B1078DEA97E00E94730E8CE3E8
:1057C00091E09093D7058093D605F092D905E092A9
:1057D000D80540E061E086ED95E00E94100F87E07B
:1057E00090E00E94FC2FFC0184E391E09183808390
:1057F000F382E282158214821682F093DB05E09335
:10580000DA0587E290E00E94FC2F8C0184E491E0AD
:10581000F80191838083F6A2E5A283E280A389E365
:1058200081A312A280E483A3D4A27801F6E1EF0E53
:10583000F11C680120E2C20ED11C93E0892E912C4C
:10584000A12CB12CF80170A061A170E080E090E083
:105850000E944609F7017497670D6083F80172A0F2
:1058600063A170E080E090E00E944609F7013A975A
:10587000670D60830E94212DA50194010E94452D92
:105880006F5FF70161937F01EC15FD05D9F6109369
:10589000DD050093DC0581E090E00E94FC2F22E30F
:1058A00039E030939F0520939E0520E030E8309347
:1058B0009D0520939C0546983E9A47983F9A909361
:1058C000DF058093DE058CE291E09093A105809343
:1058D000A00581EC97E09093D5058093D405CE0187
:1058E00001967C0100E110E01E830D83CE01059638
:1058F0000E94380EF70181937F010F5F1F4F043123
:10590000110591F789819A81AB81BC818534924CD4
:10591000A743BF4091F404E210E01E830D83CE0143
:1059200005960E94380EF801E158FA4F80830F5F08
:105930001F4F0E34110589F710C0E3EAF5E010821D
:105940001382148215821682379625E0ED3CF20709
:10595000B1F780EA95E00E94C50E1092CD05109235
:10596000CF0586E08093CE051092D0058FE5809319
:10597000D1058093D2058093D3051092A205269677
:105980000FB6F894DEBF0FBECDBFDF91CF911F9150
:105990000F91FF90EF90DF90CF90BF90AF909F90CE
:1059A0008F907F9008958F929F92AF92BF92CF92E7
:1059B000DF92EF92FF92CF93DF93EC0168817981C0
:1059C0008A819B81611571058105910521F464E24D
:1059D00079ED8BE597E02DE133EF41E050E00E9457
:1059E000452D49015A019B01AC01A7EAB1E40E948F
:1059F000642D6B017C01ACEEB4EFA50194010E9413
:105A0000722DDC01CB018C0D9D1DAE1DBF1DB7FF9E
:105A100003C00197A109B04888839983AA83BB83F7
:105A2000BC01CD019F77DF91CF91FF90EF90DF9088
:105A3000CF90BF90AF909F908F9008950E94D32CED
:105A400008958CE091E00E94D32C089560930C019E
:105A500070930D0180930E0190930F010895F999B1
:105A6000FECF92BD81BDF89A992780B50895262F63
:105A7000F999FECF1FBA92BD81BD20BD0FB6F89433
:105A8000FA9AF99A0FBE01960895052E97FB1EF417
:105A900000940E945C2D57FD07D00E94772D07FCD3
:105AA00003D04EF40C945C2D509540953095219583
:105AB0003F4F4F4F5F4F089590958095709561953A
:105AC0007F4F8F4F9F4F08950E94992DA59F900D56
:105AD000B49F900DA49F800D911D11240895B7FFD0
